:020000040800F2
:10000000F8170020C9010008DF320008BB2C0008E7
:10001000CD300008E5090008DF630008000000009B
:10002000000000000000000000000000C1380008CF
:10003000910A000800000000CF370008C33800080C
:10004000E3010008E3010008E3010008E301000800
:10005000E3010008E3010008E3010008E3010008F0
:10006000E3010008E3010008E3010008E3010008E0
:10007000E3010008E3010008E3010008E3010008D0
:10008000E3010008E3010008E3010008E3010008C0
:1000900021630008E3010008E3010008E301000810
:1000A000E301000851390008E3010008E3010008FA
:1000B000E3010008E3010008E3010008E301000890
:1000C000E3010008E3010008E3010008E301000880
:1000D000E3010008E3010008E3010008E301000870
:1000E000E3010008E3010008E301000800F002F862
:1000F00000F05AF80AA090E8000C82448344AAF168
:100100000107DA4501D100F04FF8AFF2090EBAE865
:100110000F0013F0010F18BFFB1A43F0010318473B
:100120004C6900006C6900000A444FF0000C10F8A4
:10013000013B13F0070408BF10F8014B1D1108BF65
:1001400010F8015B641E05D010F8016B641E01F805
:10015000016BF9D113F0080F1EBF10F8014BAD1C55
:100160000C1B09D16D1E58BF01F801CBFAD505E073
:1001700014F8016B01F8016B6D1EF9D59142D6D3CD
:10018000704700000023002400250026103A28BFF5
:1001900078C1FBD8520728BF30C148BF0B607047F9
:1001A0001FB51FBD10B510BD00F0D4F81146FFF704
:1001B000F7FF06F079F900F0F2F803B4FFF7F2FF69
:1001C00003BC00F0F5F800000948804709480047E3
:1001D000FEE7FEE7FEE7FEE7FEE7FEE7FEE7FEE7F7
:1001E000FEE7FEE704480549054A064B7047000054
:1001F0004F390008ED000008F80D0020F817002026
:10020000F8130020F8130020032A40F2308010F089
:10021000030C00F0158011F8013BBCF1020F6244A1
:1002200098BF11F801CB00F8013B38BF11F8013B32
:10023000A2F1040298BF00F801CB38BF00F8013BDF
:1002400011F0030300F04F80083AC0F0088051F825
:10025000043B083A51F804CBA0E80810F5E7121D5A
:100260005CBF51F8043B40F8043BAFF30080D20779
:1002700024BF11F8013B11F801CB48BF11F8012B45
:1002800024BF00F8013B00F801CB48BF00F8012B68
:1002900070474FF0000200B5134694469646203949
:1002A00022BFA0E80C50A0E80C50B1F12001BFF42F
:1002B000F7AF090728BFA0E80C5048BF0CC05DF895
:1002C00004EB890028BF40F8042B08BF704748BFE3
:1002D00020F8022B11F0804F18BF00F8012B704757
:1002E00070477047704710B5203AC0F00B80B1E8F6
:1002F0001850203AA0E81850B1E81850A0E818505B
:10030000BFF4F5AF5FEA027C24BFB1E81850A0E863
:10031000185044BF18C918C0BDE810405FEA827C7D
:1003200024BF51F8043B40F8043B08BF7047D20794
:1003300028BF31F8023B48BF11F8012B28BF20F835
:10034000023B48BF00F8012B70470000004870478F
:10035000980D00207546FFF7F9FFAE460500694687
:10036000534620F00700854618B020B5FFF73AFF46
:10037000BDE820404FF000064FF000074FF00008A6
:100380004FF0000B21F00701AC46ACE8C009ACE827
:10039000C009ACE8C009ACE8C0098D46704710B58B
:1003A0000446AFF300802046BDE81040FFF705BFCC
:1003B00001491820ABBEFEE726000200704700008E
:1003C00010B5044694F9020011281FD008DC01285A
:1003D00039D0022838D0032853D0102852D108E051
:1003E000122820D013282BD014282AD0152849D120
:1003F00028E02648007820F00100401C23490870BE
:100400001222211D2248FFF7FFFE3CE01222211D8F
:100410002048FFF7F9FE1D48007820F00200801CFC
:100420001A4908702FE01222211D1B48FFF7ECFE2D
:100430001648007820F00400001D1449087022E0DE
:1004400021E020E01FE01EE02079212813D004DC09
:10045000012807D0022811D10CE0A0280CD0A12837
:100460000CD10AE00948007820F0400040300749EC
:10047000087004E003E002E001E000E000BF00BF1C
:1004800001E000E000BF00BF10BD0000CE01002071
:10049000440C0020560C0020680C00202DE9F05F71
:1004A00082460226AE4C00274FF000084FF00009AC
:1004B000BAF1100F1ED008DCBAF1080F7ED2DFE8C7
:1004C0000AF07DE2D3A87DFD94E1BAF1140F1FD0AC
:1004D00009DCBAF1110F13D0BAF1120F16D0BAF12C
:1004E000130F6BD113E0BAF1150F12D0BAF1EF0F61
:1004F000F7D1F8E09B4FDFF87082DFF8709209E0E7
:100500009B4FDFF87082DFF8709203E002E000BFDB
:1005100000BF00BFEFB13869984906F051F9834632
:1005200006F006F900B28E4988807869934906F092
:1005300047F9834606F0FCF800B28949C880B869DB
:100540008E4906F03DF9834606F0F2F800B2844980
:100550000881B8F1000F20D0D8F81000874906F0C4
:100560002FF9834606F0E4F800B27D494881D8F8B7
:100570001400824906F024F9834606F0D9F800B247
:1005800077498881D8F818007C4906F019F9834624
:1005900006F0CEF800B27249C881B9F1000F22D03E
:1005A000D9F81000754906F00BF9834606F0C0F83B
:1005B00000B26B490882D9F8140000E09AE06F4954
:1005C00006F0FEF8834606F0B3F800B264494882AC
:1005D000D9F81800694906F0F3F8834606F0A8F840
:1005E00000B25F498882122685E0654800885C4930
:1005F000888063484088C880614880880881604856
:10060000C088488100208881C881088248821026DD
:1006100071E05C48808800B2514988805948C088A0
:1006200000B2C8805748008800B208815548408809
:1006300000B248815348008900B2888151484089FE
:1006400000B2C8814F48808900B208824D48C089F5
:1006500000B248824B48808900B288824948C089EC
:1006600000B2C882142646E03D49474802684A6005
:1006700042688A608068C860002008824882888258
:10068000122638E037E041490868414906F098F8F9
:10069000834606F04DF8404200B2314988803B491C
:1006A00048683B4906F08CF8834606F041F800B2F2
:1006B0002B49C88035498868354900E012E006F0CA
:1006C0007FF8834606F034F8404200B2244908819E
:1006D0000020488188812F480078000200B2C8813C
:1006E0000C2608E007E02C48B0F900001C4988807F
:1006F000022600E000BF00BF4AF6AA201849088081
:1007000046EA0A2000B248805421301D21540225B7
:100710001AE06057691C615648406055681C2056B5
:1007200061574840691C60546057615648406055A5
:10073000615D681C205C0144301D205C084441B2AE
:10074000301D2154A81CC5B2301D8542E1DB701D4F
:10075000C1B2204605F044FD05F078FDBDE8F09FEC
:100760007A0C0020800A0020B40A0020E80A002049
:10077000500B00201C0B0020840B002000007A444A
:100780006E010020580A0020680A0020740A002028
:100790000000C8426C010020CC0100202DE9F84384
:1007A0007C48007820B1012806D002287ED110E0D4
:1007B000012078490870EAE00220FFF76FFE1E2052
:1007C00005F02CFE7448007810B1022071490870C1
:1007D000DDE07148007810B901206E4908706E485C
:1007E0000078C0F3801088B11020FFF757FE0F206B
:1007F00005F014FE1120FFF751FE0F2005F00EFE4C
:100800006548007820F0400063490870624800782D
:1008100000F03F0000287DD00025002600275E481C
:10082000007800F0010050B15C4D5D4E5D4F5E4CB4
:100830005948007820F001005749087016E05648E2
:100840000078C0F3400050B1584D594E594F5A4CA2
:100850005148007820F002004F49087006E001205E
:100860004C49087000204C49087090E075B320781E
:100870008DF8010060788DF80000BDF8000005F0EB
:100880008BFF80464D4905F091FE2861A0788DF8D8
:100890000100E0788DF80000BDF8000005F07CFF55
:1008A0008046464905F082FE686100E06EE02079EE
:1008B0008DF8010060798DF80000BDF8000005F0AA
:1008C0006BFF80463D4905F071FEA86176B3A079C3
:1008D0008DF80100E0798DF80000BDF8000005F00A
:1008E0005BFF8046354905F061FE3061207A8DF866
:1008F0000100607A8DF80000BDF8000005F04CFFA3
:1009000080462E4905F052FE7061A07A8DF80100F4
:10091000E07A00E039E08DF80000BDF8000005F055
:100920003BFF8046254905F041FEB06167B3207B5F
:100930008DF80100607B8DF80000BDF8000005F027
:100940002BFF80461D4905F031FE3861A07B8DF8F4
:100950000100E07B8DF80000BDF8000005F01CFFF1
:100960008046164905F022FE7861207C8DF8010052
:10097000607C8DF80000BDF8000005F00DFF80469A
:100980000E4905F013FEB86100BF00E000BF00BFD4
:10099000BDE8F883CF010020CE010020800A0020AE
:1009A000B40A0020E80A0020440C0020500B00206C
:1009B0001C0B0020840B0020560C002000007A4401
:1009C00010B505F023FC642005F028FD05F02EFC91
:1009D00002F07EFB02F092F9014801F09BFE10BD8F
:1009E000D401002000BFFEE70020704700207047C0
:1009F0002DE9F047804689460121224803F0C7FCD3
:100A0000C6B22048D0F8B872324639461E48FFF7C1
:100A1000FBFB1D484078AA2830D11B488078AF28BE
:100A20002CD10025012405E01748005D2844C5B2FB
:100A3000601CC4B214480078A042F5DC124800786B
:100A40001149085CA84215D10846007910280DDB31
:100A500008464079152809DC0846007945EA002057
:100A600000B20A490880EF20FFF718FD0648401C35
:100A7000FFF7A6FC00200449487000BF0020BDE835
:100A8000F087000064020020B80B0020CC01002099
:100A9000704772B600BFFEE770B50A480468001DD3
:100AA0000568001D0668344454B1082206492046F2
:100AB00002F005F9042204491031284602F0FFF83B
:100AC00070BD0000E8F7FF1F360000202DE9F84751
:100AD0000346002294466EE14FF0010808FA02F442
:100AE000D1F8008008EA0400A0427DD1DFF8DCA242
:100AF000D1F80480A8EB0A09D0453AD014DCB8F14B
:100B0000030F50D009DCB8F1000F31D0B8F1010F5C
:100B10001CD0B8F1020F49D120E0B8F1110F18D064
:100B2000B8F1120F42D11EE0B9F5881F25D006DCBE
:100B3000B9F5803F20D0B9F5801F37D11AE0B9F55B
:100B4000001F18D0B9F5041F30D117E0D1F80CC040
:100B50002DE0D1F80C8008F1040C28E0D1F80C80CD
:100B600008F1080C23E0D1F80C8008F10C0C1EE011
:100B700000BF00BF00BF00BF00BF00BFD1F80880AA
:100B8000B8F1000F02D14FF0040C0BE0D1F808804F
:100B9000B8F1010F03D14FF0080C1C6102E04FF0D7
:100BA000080C5C6103E04FF0000C00E000BF00BFE8
:100BB000FF2801D8984601E003F104084646FF28C3
:100BC00002D84FEA820803E0A2F108084FEA880839
:100BD0004746D6F800804FF00F0909FA07F928EACE
:100BE00009080CFA07F900E088E048EA0908C6F8A5
:100BF0000080D1F8048008F08058B8F1805F7DD182
:100C000000BFDFF8CC81D8F8188048F00108DFF881
:100C1000C091C9F81880C846D8F8188008F00108B3
:100C2000CDF8008000BF00BF4FEAB9384FEA920903
:100C300058F829504FEA82784FEA18794FF00F0898
:100C400008FA09F825EA0805DFF88881434502D14A
:100C50004FF0000816E0DFF88081434502D14FF0E5
:100C600001080FE0DFF87481434502D14FF002081C
:100C700008E0DFF86C81434502D14FF0030801E042
:100C80004FF004084FEA82794FEA197908FA09F817
:100C900048EA0505DFF84C814FEA920948F82950E7
:100CA000D1F8048008F48018B8F5801F0AD1DFF865
:100CB0003881D8F8008048EA0008DFF82C91C9F89C
:100CC000008009E0DFF82081D8F8008028EA0008D9
:100CD000DFF81491C9F80080D1F8048008F40018F6
:100CE000B8F5001F10D1DFF8008108F10408D8F82A
:100CF000008048EA0008DFF8F09000E05AE009F1CF
:100D00000409C9F800800DE0DFF8DC8008F1040870
:100D1000D8F8008028EA0008DFF8CC9009F104092F
:100D2000C9F80080D1F8048008F40038B8F5003F15
:100D30000ED1DFF8B480A8F10408D8F8008048EAA2
:100D40000008DFF8A490A9F10409C9F800800DE0BB
:100D5000DFF89480A8F10408D8F8008028EA000899
:100D6000DFF88490A9F10409C9F80080D1F8048063
:100D700008F48038B8F5803F0ED1DFF86C80A8F118
:100D80000808D8F8008048EA0008DFF85C90A9F16C
:100D90000809C9F800800DE0DFF84C80A8F10808C8
:100DA000D8F8008028EA0008DFF83C90A9F108098B
:100DB000C9F80080521CD1F8008028FA02F8B8F176
:100DC000000F7FF489AEBDE8F88700000000111025
:100DD0000010024000080140000C014000100140DA
:100DE00000140140080001400804014002469368D5
:100DF0000B400BB1012000E00020704710B5C26825
:100E000021EA020302EA010443EA0443036110BD3C
:100E10000AB1016101E00B040361704701480068F9
:100E2000704700005C01002003480068034909780E
:100E300008440149086070475C01002064010020FB
:100E400010B50848006840F010000649086003200B
:100E500000F0ACF8032000F007F800F02BF80020B9
:100E600010BD00000020024070B504460E48007816
:100E70004FF47A71B1FBF0F00C490968B1FBF0F561
:100E8000284601F07BFB08B1012070BD102C07D271
:100E900000222146501E00F04BF80548046001E096
:100EA0000120F2E70020F0E7640100206801002043
:100EB0006001002008B500BF1348806940F00100C0
:100EC000114988610846806900F00100009000BF68
:100ED00000BF00BF0846C06940F08050C8610846A6
:100EE000C06900F08050009000BF00BF052000F0F6
:100EF0005DF800BF0549486820F0E06040F0807070
:100F0000486000BF08BD0000001002400000014022
:100F100001460846002809DB00F01F0301229A4021
:100F200043099B0003F1E023C3F8002100BF704791
:100F30002DE9F05F80460D461646002705F052FA6F
:100F4000074639462A46334601F00700C0F1070A32
:100F5000BAF1040F02D94FF0040A01E0C0F1070A08
:100F6000D14600F1040ABAF1070F02D24FF0000A8D
:100F700001E0A0F1030AD4464FF0010A0AFA09FA87
:100F8000AAF1010A0AEA020A0AFA0CFA4FF0010B66
:100F90000BFA0CFBABF1010B0BEA030B4AEA0B0457
:100FA0002146404605F026FABDE8F09F00BF00F05C
:100FB0000702064B19684FF6FF031940044B0B4319
:100FC00043EA0221014B196000BF70470CED00E0BD
:100FD0000000FA0570B505460C4604F08000802834
:100FE00008D104F0070000EB800605F1100000EBCB
:100FF000C60105E004EB840605F5A87000EBC60108
:101000001AB900200873CB8004E0012008730B811B
:10101000180C4881002070BD704770B504460D461D
:1010200005EB850304F1100101EBC3014A69294670
:10103000D4F8D40203F05EFA70BD70B504460D46D4
:1010400005EB850304F5A87101EBC3014A69294644
:10105000D4F8D40203F0CEFA70BD70B504460E4643
:1010600006F0800080280AD106F0070000EB80011E
:1010700004F1100000EBC1050120687009E006F0E2
:10108000070000EB800104F5A87000EBC10500200B
:10109000687006F00700287000BF94F890020128DD
:1010A00001D1022070BD012084F8900200BF2946C2
:1010B000206804F06DF900BF002084F8900200BFA2
:1010C00000BFEFE770B504460E4606F00F00217929
:1010D000884201D9012070BD06F0800080280AD125
:1010E00006F0070000EB800104F1100000EBC105E1
:1010F0000120687009E006F0070000EB800104F5AC
:10110000A87000EBC105002068700020A87006F0F0
:101110000700287000BF94F89002012801D1022036
:10112000D9E7012084F8900200BF2946206804F026
:101130008BFA00BF002084F8900200BF00BFCAE70E
:101140002DE9F04105460C46174607F4804000287B
:1011500050D02868B0F85010207801EBC000801CF7
:10116000296801F5806131F81000C0F30906A06913
:10117000B04203D3A069801BA06101E00020A06100
:10118000A069A8B900BF22785200296831F812106E
:101190004BF68F7201EA020080F4005040F40041E7
:1011A00041F0800123785B002A6822F8131000BF09
:1011B00007F04000A8B100BF00BF227852002968A4
:1011C00031F8121048F68F7201EA020040F4004133
:1011D00041F0C00123785B002A6822F8131000BF99
:1011E00000BF002E55D0228961693346286805F07A
:1011F000A7F84EE02868B0F85010207801EBC00046
:10120000801D296801F5806131F81000C0F30906DE
:10121000A069B04203D3A069801BA06101E0002057
:10122000A061A069A8B900BF22785200296831F8EE
:1012300012104BF68F7201EA020080F4005040F465
:10124000004141F0800123785B002A6822F81310E6
:1012500000BF07F04000A8B900BF00BF22785200CD
:10126000296831F8121048F68F7201EA020040F442
:10127000004141F0C00123785B002A6822F8131076
:1012800000BF00BF2EB1628961693346286805F04E
:1012900057F83046BDE8F0812DE9F04705460C4689
:1012A000904608F0400000287ED02868B0F8501022
:1012B000207801EBC000801C296801F5806131F8BD
:1012C0001000C0F30907A069B84203D9A069C01B88
:1012D000A06101E00020A061A06900287ED100BFCC
:1012E0006078C0B900BF29682A68B2F8502011445C
:1012F0002278022303EBC20201F5806303EB420074
:1013000000BF0288C2F309020280028842F4004250
:10131000028000BF13E06078012810D100BF286868
:101320002A68B2F8502010442278022303EBC2024C
:1013300000F5806303EB420100220A8000BF00BF7A
:1013400000BF29686078F8B900BF2B68D5F800C0E5
:10135000BCF850C0634494F800C04FF0060909EB94
:10136000CC0C03F5806909EB4C0000BFB0F800C05D
:10137000CCF3090CA0F800C0B0F800C04CF4004C4D
:10138000A0F800C000BF12E0607801280FD12868E3
:10139000B0F8500001442078062303EBC00001F5AB
:1013A000806303EB400200E0B7E00020108000BF44
:1013B00021782846FFF731FE08F48040002816D037
:1013C00000BF00BF22785200296831F8121048F699
:1013D0008F7201EA020040F4004100E008E041F4AD
:1013E000814123785B002A6822F8131000BFD7E1FF
:1013F00008F48040A8B100BF00BF227852002968DD
:1014000031F8121048F68F7201EA020040F40041F0
:1014100041F4814123785B002A6822F8131000BF51
:1014200000BF94F824000128E1D16069384460616C
:10143000E0693844E0612169206A884204D3266962
:10144000206A801B20620BE0206A20B93E46002003
:1014500084F8240004E0002084F82400266A206236
:1014600000BF6078E8BB00BF2A682968B1F8501057
:101470000A442178022303EBC10102F5806303EBE8
:101480004101084600BF0388C3F3090303803E2ED1
:1014900010D900BF710906F01F0303B9491E038864
:1014A0004FF4004C4CEA812C1FFA8CFC43EA0C03ED
:1014B000038014E026B9038843F4004303800EE060
:1014C00000BF710806F0010303B1491C03884FF601
:1014D000FF7C0CEA812C43EA0C03038000BF00BFB1
:1014E00013E0FFE7607801280FD100BF28682A6861
:1014F000B2F8502010442278022303EBC20200F518
:10150000806303EB42010E8000BF00BFB3B22289AB
:101510006169286804F043FF42E12868B0F8501080
:10152000207801EBC000801D296801F5806131F849
:101530001000C0F30907A069B84203D3A069C01B1B
:10154000A06101E00020A061A06900287ED100BF59
:101550006078C0B900BF29682A68B2F850201144E9
:101560002278022303EBC20201F5806303EB420001
:1015700000BF0288C2F309020280028842F40042DE
:10158000028000BF13E06078012810D100BF2868F6
:101590002A68B2F8502010442278022303EBC202DA
:1015A00000F5806303EB420100220A8000BF00BF08
:1015B00000BF29686078F8B900BF2B68D5F800C073
:1015C000BCF850C0634494F800C04FF0060909EB22
:1015D000CC0C03F5806909EB4C0000BFB0F800C0EB
:1015E000CCF3090CA0F800C0B0F800C04CF4004CDB
:1015F000A0F800C000BF10E0607801280DD1286875
:10160000B0F8500001442078062303EBC00001F538
:10161000806303EB40020020108000BF2178284641
:10162000FFF7FBFC08F48040002816D100BF00BF84
:1016300022785200296831F8121048F68F7201EAB8
:10164000020040F4004141F4814100E006E02378CB
:101650005B002A6822F8131000BFA1E008F4804064
:10166000A8B900BF00BF22785200296831F81210D3
:1016700048F68F7201EA020040F4004141F48141D2
:1016800023785B002A6822F8131000BF00BF94F88B
:10169000240001287ED1606938446061E0693844E3
:1016A000E0612169206A884204D32669206A801B90
:1016B00020620BE0206A20B93E46002084F8240016
:1016C00004E0266A0020206284F8240000BF2A6813
:1016D000607870BB00BFD5F800C02968B1F8501021
:1016E0008C4421784FF0060909EBC1010CF58069A3
:1016F00009EB4101084600BFB0F80090C9F30909A1
:10170000A0F800903E2E15D900BF710906F01F0900
:10171000B9F1000F00D1491EB0F800904FF4004A13
:101720004AEA812A1FFA8AFA49EA0A09A0F80090CF
:101730001BE01CE036B9B0F8009049F40049A0F86D
:10174000009012E000BF710806F00109B9F1000F26
:1017500000D0491CB0F800904FF6FF7A0AEA812ABF
:1017600049EA0A09A0F8009000BF00BF0FE06078C6
:1017700001280CD12868B0F85000024420780621D6
:1017800001EBC00002F5806101EB40031E8000BF49
:10179000B3B200E004E062896169286804F0FFFDEB
:1017A00000BF22785200296831F8121048F6BF7243
:1017B00001EA020080F0100080F0200040F40041B7
:1017C00041F0800223785B00296821F8132000BFD4
:1017D0000020BDE8F087024601F0070000EB80031F
:1017E00002F5A87000EBC300C06970472DE9F0470F
:1017F00005460E4690461F464FF0000906F0800051
:1018000080280AD106F0070000EB800105F11000E6
:1018100000EBC1040120607009E006F0070000EB56
:10182000800105F5A87000EBC1040020607006F08F
:1018300007002070C4F81080E770022F01D100204B
:10184000207100BF95F89002012802D10220BDE866
:10185000F087012085F8900200BF2146286803F038
:101860003BFB00BF002085F8900200BF4846EEE732
:101870002DE9F04105460E461746984606F007004A
:1018800000EB800105F5A87000EBC1046761C4F8A6
:1018900018800020E061607006F00700207021468B
:1018A000286803F06CFF0020BDE8F08170B50446A5
:1018B0000D4605F007002179884201D9012070BD4D
:1018C00005F0800080280AD105F0070000EB8001B8
:1018D00004F1100000EBC1060120707007E005EB79
:1018E000850104F5A87000EBC1060020707001208E
:1018F000B07005F00700307000BF94F89002012826
:1019000001D10220DBE7012084F8900200BF3146BC
:10191000206803F006FF05F0070020B904F52671E2
:10192000206803F08EFE00BF002084F8900200BF04
:1019300000BFC4E72DE9F04105460E4690461F461C
:1019400006F0070000EB800105F1100000EBC10478
:10195000C4F81480A761012084F8240027620020C5
:10196000E0610120607006F00700207021462868C1
:1019700003F005FF0020BDE8F0817FB50446206834
:1019800004F0DAFC064606F40040B0F5004F03D13F
:10199000204601F0A6FC7FBD06F48060B0F5806FA4
:1019A00010D12068B0F844004FF6FF31084021689C
:1019B000A1F84400204600F087F90021204600F0FD
:1019C000A3F9E8E706F48040B0F5804F09D120681C
:1019D000B0F844004BF6FF7108402168A1F84400BC
:1019E000D9E706F40050B0F5005F09D12068B0F8DF
:1019F00044004DF6FF7108402168A1F84400CAE791
:101A000006F48050B0F5805F1ED12068B0F8400029
:101A10004FF6FB7108402168A1F840002068B0F83B
:101A200040004FF6F77108402168A1F840002046B9
:101A300000F05CF92068B0F844004EF6FF710840F1
:101A40002168A1F84400A6E706F40060B0F5006F35
:101A500056D1002507E06900206830F811002DF804
:101A60001500681CC5B2082DF5D32068B0F84000F9
:101A700040F001002168A1F840002068B0F8400063
:101A80004FF6FE7108402168A1F8400000BF2068B1
:101A9000B0F8440000F480600028F8D02068B0F866
:101AA00044004FF6FF3108402168A1F844000025AA
:101AB00007E03DF815006A00216821F81200681C53
:101AC000C5B2082DF5D32068B0F8400040F00800FA
:101AD0002168A1F840002068B0F844004FF2FF717F
:101AE00008402168A1F844002068B0F8400040F0A8
:101AF00004002168A1F84000204600F065F94AE79B
:101B000006F40070B0F5007F0CD12068B0F84400F6
:101B10004FF6FF5108402168A1F84400204600F02C
:101B2000ECF838E706F48070B0F5807F09D12068C2
:101B3000B0F844004FF6FF6108402168A1F8440066
:101B400029E700BF27E770B504460CB9012070BD36
:101B500094F8910228B9002084F89002204600F001
:101B600091F8032084F8910200216171206803F04C
:101B70005EFD94E80F0003F007FC20B1022084F81A
:101B800091020120E3E70021206804F0FEFB20B170
:101B9000022084F891020120D9E700252AE00121E2
:101BA00005EB850204F1100000EBC200417005EB6B
:101BB000850104F1100000F83150002105EB850289
:101BC00000EBC200C17005EB850204F1100000EBD0
:101BD000C200016105EB850204F1100000EBC200B8
:101BE000416105EB850204F1100000EBC200816148
:101BF000681CC5B22079A842D1DC00252AE000216A
:101C000005EB850204F5A87000EBC200417005EBFE
:101C1000850104F5A87000F83150002105EB85021C
:101C200000EBC200C17005EB850204F5A87000EB63
:101C3000C200016105EB850204F5A87000EBC2004B
:101C4000416105EB850204F5A87000EBC2008161DB
:101C5000681CC5B22079A842D1DC94E80F0003F0DB
:101C6000DBFC20B1022084F8910201206FE7002004
:101C70006073012084F89102206803F0CAFC002000
:101C800065E7000038B504460D492068884215D143
:101C900000BF0C48C06940F400000A49C86108460A
:101CA000C06900F40000009000BF00BF0022114690
:101CB0001420FFF73DF91420FFF72AF938BD000082
:101CC000005C00400010024070B504460125A07978
:101CD000022801D0FEF7DDFE2946D4F8D40202F036
:101CE000B5FDD4F8D40202F067FD70BD10B504460E
:101CF000D4F8D40202F08EFD10BD10B50446D4F81D
:101D0000D40202F092FD10BD70B504460D4600BF2E
:101D100094F89002012801D1022070BD012084F8BE
:101D2000900200BF65732946206804F031FB00BFB4
:101D3000002084F8900200BF00BFEEE710B5044613
:101D400004F52671D4F8D40202F097FD10BD10B549
:101D5000044600BF94F89002012801D1022010BD72
:101D6000012084F8900200BF206804F030FA0121BD
:101D70002046FFF751F9206803F048FC00BF00201F
:101D800084F8900200BF00BFE9E710B5044600BF29
:101D900094F89002012801D1022010BD012084F89E
:101DA000900200BF206803F042FC00212046FFF7AC
:101DB00033F9206803F02DFC00BF002084F8900266
:101DC00000BF00BFE9E7000010B50446D4F8D40214
:101DD00002F0BBFDA07A28B10348006840F006007D
:101DE0000149086010BD000010ED00E0F8B50446A0
:101DF00000260025207800F0010000286BD0002785
:101E00004348C06900F0805070B900BF4048C069C5
:101E100040F080503E49C8610846C06900F08050DB
:101E2000009000BF00BF01273A48006800F48070AE
:101E3000B0B93848006840F4807036490860FEF751
:101E4000EDFF064606E0FEF7E9FF801B642801D996
:101E50000320F8BD2F48006800F480700028F2D0FD
:101E60002B48006A00F440752DB3A08800F4407040
:101E7000A84220D02648006A20F440750120264957
:101E80000860002008602248056205F0010090B15A
:101E9000FEF7C4FF064608E0FEF7C0FF801B41F2D4
:101EA0008831884201D90320D3E71948006A00F03D
:101EB00002000028F0D01648006A20F440706168E3
:101EC000084313490862012F04D10846C06920F075
:101ED0008050C86100BF207800F00200022807D1BE
:101EE0000B48406820F44040A16808430849486016
:101EF000207800F01000102807D10548406820F431
:101F00008000E1680843024948600020A1E7000022
:101F100000100240007000404004424270B5044688
:101F20000D460CB9012070BD5A48006800F007004A
:101F3000A8420ED25748006820F0070028435549B0
:101F400008600846006800F00700A84201D00120A0
:101F5000E9E7207800F0020002281DD1207800F087
:101F60000400042805D14C48406840F4E0604A4928
:101F70004860207800F00800082805D146484068ED
:101F800040F46050444948604348406820F0F00005
:101F9000A168084340494860207800F0010078B308
:101FA0006068012806D13C48006800F4003090B910
:101FB0000120B8E76068022806D13748006800F0C1
:101FC000007040B90120AEE73348006800F002001D
:101FD00008B90120A7E73048406820F00300616895
:101FE00008432D494860FEF719FF064609E0FEF751
:101FF00015FF801B41F28831884202D9032092E705
:1020000007E02548406800F00C006168B0EB810FE4
:10201000EDD12048006800F00700A8420ED91D4805
:10202000006820F0070028431A4908600846006845
:1020300000F00700A84201D0012074E7207800F0EA
:102040000400042807D11448406820F4E060E168E7
:10205000084311494860207800F00800082808D19A
:102060000D48406820F46050216940EAC1000A49E7
:10207000486000F019F808494968C1F30311074A9C
:10208000515CC8400649086006480068FEF7ECFE4F
:10209000002048E70020024000100240546A000877
:1020A000680100206001002070B50021002200249A
:1020B00000230020134D696801F00C05F5B1042DD3
:1020C00002D0082D19D101E00F4819E00F4DC1F3DE
:1020D0008346AB5D01F4803555B10A4D6D68C5F39B
:1020E00040450B4E725D084D5D43B5FBF2F402E0D6
:1020F000084D03FB05F4204602E000BF024800BF84
:1021000000BF70BD0010024000127A00426A000851
:10211000526A000800093D00F8B504460CB90120D8
:10212000F8BD207800F00100002878D0F848406819
:1021300000F00C0004280CD0F548406800F00C00BA
:10214000082811D1F248406800F48030B0F5803F93
:102150000AD1EF48006800F4003000285FD06068C2
:1021600000285CD10120DBE700BF6068B0F5803F4C
:1021700006D1E748006840F48030E549086028E06F
:10218000606858B9E248006820F48030E04908608F
:102190000846006820F4802008601AE06068B0F506
:1021A000A02F0BD1DA48006840F48020D84908609D
:1021B0000846006840F4803008600AE0D4480068AF
:1021C00020F48030D24908600846006820F480205E
:1021D000086000BF606888B1FEF720FE054606E093
:1021E000FEF71CFE401B642801D9032098E7C8486D
:1021F000006800F400300028F2D010E0FEF70EFE78
:10220000054606E0FEF70AFE401B642801D90320BC
:1022100086E7BF48006800F400300028F2D120783B
:1022200000F00200022857D1B948406800F00C00C5
:1022300050B1B748406800F00C00082818D1B448E5
:10224000406800F4803098B9B148006800F002009E
:1022500020B12069012801D0012061E7AC48006865
:1022600020F0F800616940EAC100A949086033E044
:102270002069E8B10120A7490860FEF7CFFD0546B7
:1022800006E0FEF7CBFD401B022801D9032047E7FB
:102290009F48006800F002000028F2D09C480068C7
:1022A00020F0F800616940EAC1009949086013E034
:1022B000002098490860FEF7B1FD054606E0FEF7EC
:1022C000ADFD401B022801D9032029E79048006892
:1022D00000F002000028F2D1207800F00800082861
:1022E0002DD1A069B8B101208B490860FEF796FD99
:1022F000054606E0FEF792FD401B022801D90320A7
:102300000EE78348406A00F002000028F2D0012066
:1023100001F0C2FA13E000207F490860FEF77EFD5D
:10232000054606E0FEF77AFD401B022801D903208E
:10233000F6E67748406A00F002000028F2D12078E3
:1023400000F00400042873D100277148C06900F030
:10235000805070B900BF6E48C06940F080506C4931
:10236000C8610846C06900F08050009000BF00BFFF
:1023700001276A48006800F48070B0B967480068B7
:1023800040F4807065490860FEF748FD054606E0A8
:10239000FEF744FD401B642801D90320C0E65F48D6
:1023A000006800F480700028F2D000BFE0680128C7
:1023B00006D15748006A40F001005549086227E0FD
:1023C000E06858B95248006A20F00100504908629C
:1023D0000846006A20F00400086219E0E068052859
:1023E0000BD14B48006A40F0040049490862084696
:1023F000006A40F0010008620AE04548006A20F0E7
:102400000100434908620846006A20F0040008629F
:1024100000BFE068A0B1FEF701FD054609E0FEF748
:10242000FDFC401B41F28831884202D9032077E647
:1024300022E03748006A00F002000028EFD012E0E6
:10244000FEF7ECFC054608E0FEF7E8FC401B41F215
:102450008831884201D9032062E62D48006A00F0E5
:1024600002000028F0D1012F05D12948C06920F0D1
:1024700080502749C86100BFE069C8B3244840685C
:1024800000F00C00082860D0E069022848D1002044
:1024900020490866FEF7C2FC054606E0FEF7BEFCD2
:1024A000401B022801D903203AE61948006800F0D1
:1024B00000700028F2D1206AB0F5803F07D114489F
:1024C000406820F40030A168084311494860D4E90D
:1024D000080108430E49496821F4741108430C4966
:1024E000486001200B490866FEF798FC054607E0A6
:1024F0003DE0FEF793FC401B022801D903200FE6C4
:102500000348006800F000700028F2D02FE00000BF
:10251000001002400000424280044242007000402D
:10252000002014490866FEF779FC054606E0FEF730
:1025300075FC401B022801D90320F1E50E48006814
:1025400000F000700028F2D111E0E069012800D10C
:10255000E6E50948466806F48031206A814204D1E4
:1025600006F47011606A814201D00120D8E5002094
:10257000D6E50000000042420010024070B504465B
:102580002546681EB0F1807F01D301200FE0681E50
:102590004FF0E02148610F214FF0FF3003F02AFF98
:1025A00000204FF0E021886107200861002070BD05
:1025B0007047704730B502460B4600BF92F83C00AA
:1025C000012801D1022030BD012082F83C0000BF6B
:1025D000022082F83D00106844681068816824F089
:1025E00070041868044310684460104D1068A842D5
:1025F0000BD01068B0F1804F07D00D4D1068A84285
:1026000003D00C4D1068A84205D121F08001586814
:10261000014310688160012082F83D0000BF002066
:1026200082F83C0000BF00BFCDE70000002C014055
:10263000000400400008004010B504460CB9012019
:1026400010BD94F83D0028B9002084F83C002046D5
:1026500000F026F8022084F83D00211D206801F0DA
:102660007FF9012084F8460000BF84F83E00012174
:102670003F200155402001554120015500BF00BFBA
:10268000012084F842004320015544200155452093
:10269000015500BF012084F83D000020D0E7000074
:1026A00038B504461949206888421BD100BF184834
:1026B000806940F40060164988610846806900F42A
:1026C0000060009000BF00BF002211461920FEF7F5
:1026D0002FFC1920FEF71CFC032201211920FEF714
:1026E00027FC11E02068B0F1804F0DD100BF0848F1
:1026F000C06940F001000649C8610846C06900F0A1
:102700000100009000BF00BF38BD0000002C014058
:1027100000100240014691F83D00012801D001203F
:102720007047022081F83D000868C06840F0010051
:102730000B68D860124B086898420BD00868B0F15B
:10274000804F07D00F4B0868984203D00E4B0868A3
:1027500098420CD10868806800F00702062A0CD065
:102760000868006840F001000B68186005E0086820
:10277000006840F001000B6818600020D0E70000FE
:10278000002C014000040040000800402DE9F04109
:1027900004460D46002700BF94F83C00012802D1F2
:1027A0000220BDE8F081012084F83C0000BF022037
:1027B00084F83D002068866826F0770626F47F4678
:1027C000206886602868502833D00CDC202850D040
:1027D00004DC00284BD0102851D149E0302849D0E2
:1027E00040284CD139E060282DD0702807D0B0F5B2
:1027F000805F03D0B0F5005F41D10DE041E0D5E945
:1028000002136A68206801F0FEF82068866846F0C6
:1028100077062068866034E0D5E902136A6820688C
:1028200001F0F1F82068806840F4804021688860F9
:1028300027E0EA686968206801F0B6F9502120684D
:1028400001F0ECF81DE0EA686968206801F0BFF962
:102850006021206801F0E2F813E0EA686968206806
:1028600001F0A2F94021206801F0D8F809E000BF8A
:1028700000BF00BF2968206801F0D0F801E00127FF
:1028800000BF00BF012084F83D0000BF002084F895
:102890003C0000BF384684E7704770B504462068A6
:1028A000C5682068066906F00200022819D105F003
:1028B0000200022815D1401F2168086101202077FD
:1028C0002068806900F0030018B12046FFF7E4FF9C
:1028D00005E0204600F0C2F8204600F076F900201E
:1028E000207706F00400042819D105F0040004281C
:1028F00015D1C043216808610220207720688069D3
:1029000000F4407018B12046FFF7C6FF05E02046EE
:1029100000F0A4F8204600F058F90020207706F0D7
:102920000800082819D105F00800082815D1C0436F
:1029300021680861042020772068C06900F0030046
:1029400018B12046FFF7A8FF05E0204600F086F802
:10295000204600F03AF90020207706F010001028F9
:1029600019D105F01000102815D1C0432168086165
:10297000082020772068C06900F4407018B1204614
:10298000FFF78AFF05E0204600F068F8204600F0D7
:102990001CF90020207706F0010048B105F0010085
:1029A00030B16FF0010021680861204600F078F92D
:1029B00006F08000802809D105F08000802805D12C
:1029C000C043216808612046FFF7F2FD06F0400091
:1029D000402809D105F04000402805D1C0432168B6
:1029E0000861204600F068F906F02000202809D18F
:1029F00005F02000202805D1C04321680861204649
:102A0000FFF7D7FD70BD000010B586B0044600206A
:102A100002900390049005902068B0F1804F17D188
:102A200000BF0C48806940F004000A4988610846EC
:102A3000806900F00400019000BF00BF0F200290E9
:102A4000022003900320059002A90348FEF73EF8F8
:102A500006B010BD001002400008014070472DE98B
:102A6000F04104460D461646002700BF94F83C008E
:102A7000012802D10220BDE8F081012084F83C0049
:102A800000BF36B1042E1BD0082E31D00C2E5ED1E3
:102A900045E02946206800F0CBFF2068806940F0BF
:102AA0000800216888612068806920F0040021689E
:102AB000886120688069296908432168886148E045
:102AC0002946206800F0E4FF2068806940F4006037
:102AD000216888612068806920F4806021688861AD
:102AE00020688069296940EA01202168886130E016
:102AF0002946206801F000F82068C06940F008000D
:102B00002168C8612068C06920F004002168C8619C
:102B10002068C069296908432168C86119E029460D
:102B2000206801F01DF82068C06940F40060216849
:102B3000C8612068C06920F480602168C86120688D
:102B4000C069296940EA01202168C86101E00127C4
:102B500000BF00BF00BF002084F83C0000BF384623
:102B600089E710B504460CB9012010BD94F83D006A
:102B700028B9002084F83C00204600F025F8022007
:102B800084F83D00211D206800F0EAFE012084F851
:102B9000460000BF84F83E0001213F20015540203F
:102BA00001554120015500BF00BF012084F84200BB
:102BB00043200155442001554520015500BF012007
:102BC00084F83D000020D0E77047704770B5044698
:102BD0000D4615B994F83E000BE0042D02D13F20BC
:102BE000005D06E0082D02D14020005D01E041209B
:102BF000005D012801D0012070BD1DB9022084F8BC
:102C00003E000EE0042D03D102213F20015508E0D3
:102C1000082D03D102214020015502E0022141206C
:102C2000015501222946206800F0DCFE1949206880
:102C3000884201D1012000E0002028B12068406CCA
:102C400040F40040216848641249206888420BD053
:102C50002068B0F1804F07D00F492068884203D028
:102C60000E49206888420CD12068806800F0070671
:102C7000062E0CD02068006840F001002168086032
:102C800005E02068006840F001002168086000202D
:102C9000B2E70000002C01400004004000080040A2
:102CA000034A0168914202D10121024A1170704722
:102CB000002C01406D010020704700BFFEE730B5D9
:102CC0000B46002100BF16E00A24B4EB107F05D9A3
:102CD000302404EB107403F8114005E0412404EBA8
:102CE00010740A3C03F81140000100254C00641CDC
:102CF0001D554C1CE1B29142E6DB30BD10B50024FD
:102D000000BF80226B21D02000F0BEFA04460222D0
:102D10001921D02000F0B8FA2044C4B203226B215C
:102D2000D02000F0B1FA2044C4B203221A21D020EE
:102D300000F0AAFA2044C4B218221B21D02000F0CF
:102D4000A3FA2044C4B209221C21D02000F09CFA2E
:102D50002044C4B2002CD4D1002010BD10B50446CC
:102D6000062322463B21D02000F0D4F910BD0000FC
:102D70002DE9FE4F6846FFF7F1FF0DF1060000F068
:102D800065F8002454E0012000EB44001DF8000029
:102D90001DF8141040EA012000B22749096821F803
:102DA0001400032C1BDA2449096831F9140003F0DC
:102DB000DBFC054604EB4401204A02EBC100294636
:102DC00003F046FB04EB44011C4A02EBC101886896
:102DD00003F0AEFC00B21849096821F81400022C77
:102DE00024DDE01EC5B2DFF858801349096831F9C7
:102DF000140003F0B9FC8246414603F0E1FC0746AB
:102E0000104951F82500104903F0DAFC8146394693
:102E100003F06AFB0B4941F82500064603F088FCE5
:102E200000B20549096821F8140000BF601CC4B253
:102E3000062CA8DBBDE8FE8F800100208401002065
:102E40009A99193E380C00209A99593F10B50446BA
:102E5000062322464321D02000F05CF910BD00007B
:102E600000B585B00020019002900390049000BF4F
:102E70003048806940F010002E498861084680691A
:102E800000F01000009000BF00BF00BF084680693E
:102E900040F0200088610846806900F02000009022
:102EA00000BF00BF00BF0846806940F00400886191
:102EB0000846806900F00400009000BF00BF00BF1A
:102EC0000846806940F0080088610846806900F083
:102ED0000800009000BF00BF0022C0211648FDF787
:102EE00097FF0022C3211548FDF792FFC0200190F3
:102EF0000120029002200390049001A90E48FDF7E2
:102F0000E5FD03200190012002900220039004902F
:102F100001A90A48FDF7DAFDC020019011200290B6
:102F2000012003900320049001A90448FDF7CEFD81
:102F300005B000BD0010024000080140000C014037
:102F400000B587B000200390049005900690019092
:102F5000029015481549086040F2CF2048600021D2
:102F60001248816040F22B11C16000210161416172
:102F70008161FFF761FB08B1FDF78BFD4FF48050D5
:102F8000039003A90948FFF701FC08B1FDF781FD93
:102F900000200190029001A90448FFF70BFB08B143
:102FA000FDF777FD07B000BD002C0140D4010020E3
:102FB00000B58DB0002009900A900B900C900790FE
:102FC00008901C216846FDF764F94FF080402B49BA
:102FD00008600820486000212848816040F2E731FD
:102FE000C160002101618161FFF726FB08B1FDF797
:102FF00050FD4FF48050099009A92048FFF7C6FB07
:1030000008B1FDF746FD1D48FFF7ABFD08B1FDF720
:1030100040FD00200790089007A91848FFF7CAFA5A
:1030200008B1FDF736FD602000900020019002906D
:103030000490002269461148FFF711FD08B1FDF721
:1030400028FD042269460D48FFF709FD08B1FDF788
:1030500020FD082269460948FFF701FD08B1FDF788
:1030600018FD0C2269460548FFF7F9FC08B1FDF789
:1030700010FD0248FFF7C8FC0DB000BD1C02002087
:1030800010B500220D490E4801F0F5F908B1FDF721
:1030900000FD0C490A4801F08EFC08B1FDF7F9FC6F
:1030A0000949074800F043FE08B1FDF7F2FC044867
:1030B00001F04AFD08B1FDF7ECFC10BD0000002056
:1030C00064020020880000207400002000BFFEE79A
:1030D00010B500210748FFF779FD04210548FFF7E7
:1030E00075FD08210348FFF771FD0C210148FFF72A
:1030F0006DFD10BD1C02002010B580210448FDF7B5
:1031000075FE04460A2003F095F9204610BD000024
:10311000000C01402DE9F04106460F4615461C46BD
:1031200000F07CF8304600F060F800F02AF8012842
:1031300004D100F081F80120BDE8F081384600F0AC
:1031400054F800F01EF800F069F846F0010000F0B5
:103150004CF800F016F80EE000F022F82870012C70
:1031600003D1012000F035F802E0002000F031F832
:103170006D1C601EC4B2002CEED100F05DF8002082
:10318000DAE710B5012000F071F8012000F060F8D6
:10319000FFF7B2FF0446002000F05AF8204610BDA9
:1031A00070B50025012000F061F800240DE0012039
:1031B00000F04EF8FFF7A0FF10B18020204105433A
:1031C000002000F045F8601CC4B2082CEFDB284654
:1031D00070BD10B50446204600F048F8012000F00C
:1031E00037F8002000F034F810BD70B50546002413
:1031F00011E080212141294009B1012100E0002195
:10320000084600F033F8012000F022F8002000F01A
:103210001FF8601CC4B2082CEBDB70BD10B5012098
:1032200000F024F8012000F013F8002000F01EF850
:10323000002000F00DF810BD10B5002000F016F8C9
:10324000012000F005F8012000F010F810BD00008A
:1032500010B50446224640210348FDF7D9FD0A2057
:1032600003F0E8F810BD0000000C014010B5044662
:10327000224680210348FDF7CBFD0A2003F0DAF84F
:1032800010BD0000000C014070B506460C46154606
:10329000FFF7C4FF3046FFF7A8FFFFF772FF0128D2
:1032A00003D1FFF7C9FF012070BD2046FFF79DFF46
:1032B000FFF767FF012803D1FFF7BEFF0120F3E707
:1032C0002846FFF792FFFFF75CFF012803D1FFF7C5
:1032D000B3FF0120E8E7FFF7AFFF0020E4E700BFFE
:1032E000FEE72DE9F05F054667E22868B0F844A0E4
:1032F0000AF00F07002F7ED10AF0100098BB00BF24
:103300002968098848F60F7201EA020040F400417A
:103310002A68118000BF05F110042868B0F8501029
:10332000207801EBC000801C296801F5806131F82C
:103330001000C0F30900E061E16960690844606160
:1033400000212846FDF769FE687B0028CCD0A069E3
:103350000028C9D1687B40F080002968A1F84C00A2
:103360000020687329E2FFE705F5A874286806883D
:1033700006F4006030B32868B0F85010207801EBF4
:10338000C000801D296801F5806131F81000C0F38C
:103390000900E061A18B8BB2E28805F526712868EF
:1033A00002F0CEFF00BF2968098840F68F7201EA5B
:1033B000020040F080012A68118000BF2846FEF715
:1033C000BDFCFAE106F4004000288DD000BF29685A
:1033D000098840F68F7201EA020040F080012A68F5
:1033E000118000BF2868B0F85010207801EBC000B1
:1033F000801D296800E076E001F5806131F8100059
:10340000C0F30900E061E06990B1606980B1B4F88F
:103410001CC01FFA8CF3E2886169286802F090FFF3
:10342000E16960690844606100212846FDF705FEF6
:103430002868068806F40060002893D106F44050FE
:10344000B0F5405F8ED000BF2A682968B1F85010EF
:103450000A4402F20C41084600BF0388C3F3090383
:10346000038023693E2B12D900BF23695909237CAD
:1034700003F01F0303B9491E03884FF4004C4CEAC4
:10348000812C1FFA8CFC43EA0C03038017E02369AC
:1034900023B9038843F40043038010E000BF23698D
:1034A0005908237C03F0010303B1491C03884FF63C
:1034B000FF7C0CEA812C43EA0C03038000BF00BFB1
:1034C00000BF00BF296809884BF68F7201EA02002D
:1034D00080F4805080F4005040F4004141F08001BD
:1034E0002A68118069E17900286830F8116006F4D3
:1034F000004000286FD000BF7A00296831F8121010
:1035000040F68F7201EA020040F080017B002A68D9
:1035100022F8131000BF07EB870105F5A87000EB38
:10352000C104207BB8B92868B0F85010207801EBAE
:10353000C000801D296801F5806131F81000C0F3DA
:103540000908B8F1000F5ED0E28861694346286837
:1035500002F0F6FE57E0E078022806D13246214616
:103560002846FDF7EDFD80464DE000BF00BF227804
:103570005200296831F8121048F68F7201EA0200F1
:1035800040F4004141F0C00123785B002A6822F832
:10359000131000BF00BF21784900286830F81100DF
:1035A00000F48040C0B12868B0F85010207801EBDA
:1035B000C000801C296801F5806131F81000C0F35B
:1035C0000908B8F1000F1ED02289616943462868B6
:1035D00002F0B6FE17E02AE02868B0F85010207814
:1035E00001EBC000801D296801F5806131F81000F1
:1035F000C0F30908B8F1000F05D06289616943463C
:10360000286802F09DFEE0694044E0616069404442
:103610006061A06910B12069404504D9217828462D
:10362000FDF70BFD03E02146286802F0A8F806F03C
:103630008000002876D007EB870105F1100000EB31
:10364000C10400BF7A00296831F8121048F60F72E1
:1036500001EA020040F400417B002A6822F81310BE
:1036600000BFE078012876D10020A061207B0028EF
:103670006BD006F0400080B300BF6078C0B900BFD7
:1036800029682A68B2F8502011442278022303EBFB
:10369000C20201F5806303EB420000BF0288C2F35F
:1036A00009020280028842F40042028000BF13E057
:1036B0006078012810D100BF28682A68B2F850202D
:1036C00010442278022303EBC20200F5806303EB6F
:1036D000420100220A8000BF37E0FFE700BF2968EF
:1036E000607800BB00BF2B68D5F800C0BCF850C0A4
:1036F000634494F800C04FF0060B0BEBCC0C03F5C1
:10370000806B0BEB4C0000BFB0F800C0CCF3090C91
:10371000A0F800C0B0F800C04CF4004CA0F800C005
:1037200000BF11E049E0607801280DD12868B0F8A9
:10373000500001442078062303EBC00001F58063AC
:1037400003EB40020020108000BF21782846FDF7DF
:1037500064FC32E0FFE706F4807048BB2868B0F8EC
:103760005010207801EBC000801C296801F58061B1
:1037700031F81000C0F30909A069484504D9A069CF
:10378000A0EB0900A06101E00020A061A06920B9C0
:1037900021782846FDF741FC0FE0606948446061EC
:1037A000E0694844E0612146286801F0E8FF04E050
:1037B000324621462846FDF76FFD2868B0F84400E0
:1037C00000F4004000287FF490ADBDE8F09F704702
:1037D00010B52C4800682C490968401A2B49098803
:1037E000884200D210BD2748006827490860274852
:1037F000807850B3012802D002283BD114E0002287
:1038000040212348FDF704FB002280212048FDF7DA
:10381000FFFA002201211F48FDF7FAFA00220221D7
:103820001C48FDF7F5FA29E040211948FDF7E6FAB2
:1038300080211748FDF7E2FA01211648FDF7DEFA6C
:1038400002211448FDF7DAFA18E00022402110485E
:10385000FDF7DEFA002280210D48FDF7D9FA00229B
:1038600001210C48FDF7D4FA002202210948FDF796
:10387000CFFA03E001200549887000BF00BF00BFF8
:10388000B0E700005C0100207C01002078010020EE
:1038900000080140000C014008B508490968C90842
:1038A0004FF47A72B1FBF2F14143009100BF00BFC7
:1038B00000994A1E00920029F9D108BD6801002034
:1038C000704710B5FDF7B0FA10BD00B593B02821D0
:1038D00009A8FCF7DEFC142104A8FCF7DAFC0020A0
:1038E00000900190029003900120099000040A903A
:1038F00000200B9001200D9002201090C103119127
:103900004FF4E011129109A8FEF706FC08B1FDF78B
:10391000C0F80F20049002200590002006904FF47C
:103920008060079000200890022104A8FEF7F6FAB4
:1039300008B1FDF7AEF81020009000200390684613
:10394000FEF754FA08B1FDF7A4F813B000BD7047B4
:1039500010B50248FEF7A1FF10BD0000D401002001
:1039600010B502681C4B984208D0B0F1804F05D0CA
:103970001A4B984202D01A4B984203D122F070029F
:103980004B681A43144B984208D0B0F1804F05D0D1
:10399000124B984202D0124B984203D122F440724B
:1039A000CB681A4322F080034C6943EA04020260A8
:1039B0008B68C3620B688362074B984201D10B6925
:1039C000036301234361036903F001031BB103692E
:1039D00023F00103036110BD002C014000040040EE
:1039E0000008004030B501F01F05012404FA05F37A
:1039F000046A9C430462046A01F01F0502FA05F59B
:103A00002C43046230BD30B50C46816821F47F41FF
:103A100042EA032525432943816030BD0A46816877
:103A200021F0700142F007031943816070470000E4
:103A300030B5026A056A25F00105056243688469AC
:103A400024F0700424F003040D682C4322F00202D9
:103A50008D682A430D4DA84206D100BF22F008020E
:103A6000CD682A4322F00402084DA84207D123F46E
:103A7000807323F400734D692B438D692B4343609E
:103A800084614D684563026230BD0000002C014036
:103A900030B5026A056A25F010050562436884693D
:103AA00024F4E04424F440740D6844EA052422F030
:103AB00020028D6842EA05120E4DA84207D100BFD0
:103AC00022F08002CD6842EA051222F04002094D40
:103AD000A84209D123F4806323F400634D6943EACB
:103AE00085038D6943EA8503436084614D6885637E
:103AF000026230BD002C014030B5026A056A25F42F
:103B0000807505624368C46924F0700424F00304DE
:103B10000D682C4322F400728D6842EA05220F4D95
:103B2000A84207D100BF22F40062CD6842EA052214
:103B300022F48062094DA84209D123F4805323F472
:103B400000534D6943EA05138D6943EA0513436049
:103B5000C4614D68C563026230BD0000002C0140A5
:103B600030B5036A056A25F4805505624468C26968
:103B700022F4E04222F440720D6842EA052223F466
:103B800000538D6843EA0533064DA84204D124F45E
:103B900080444D6944EA85144460C2614D680564FF
:103BA000036230BD002C014030B50B461446026A5A
:103BB000056A25F001050562816921F0F00141EAFD
:103BC000041122F00A021A438161026230BD30B54D
:103BD0000B461446026A056A25F0100505628169E4
:103BE00021F4704141EA043122F0A00242EA0312BA
:103BF0008161026230BD02460020D2F8B83283F8FB
:103C00005000704770B504460E46D4F8B852697833
:103C10002878D4F8BC32DA68904740232A4601213C
:103C2000204600F0B1FD002070BD70B504460D4681
:103C30008121204600F04BFC0021E1620121204659
:103C400000F045FC0021C4F86C11D4F8B80250B162
:103C5000D4F8BC1288688047D4F8B80201F034F96F
:103C60000020C4F8B802002070BD70B50546D5F834
:103C7000B842E06C012807D161782078D5F8BC32D1
:103C8000DA6890470020E064002070BD01460A20F9
:103C9000088001487047000050010020014629209B
:103CA0000880014870470000C0000020014629201C
:103CB0000880014870470000EC00002001462920E0
:103CC0000880014870470000180100202DE9F041EC
:103CD00004460F460026022303228121204600F0DD
:103CE0003BFD0121E16202230322204600F034FD66
:103CF0000121C4F86C11542001F0E8F8C4F8B802AE
:103D0000D4F8B80208B901260EE0D4F8B852002061
:103D100085F85000D4F8BC124868804740232A46F2
:103D20000121204600F030FD3046BDE8F08102461A
:103D3000022011B1C2F8BC12002070472DE9F041F9
:103D400004460D461646D4F8B87294F89C0203282F
:103D50000FD197F8500048B9012087F8500033463A
:103D60002A468121204600F0FAFD02E00120BDE84C
:103D7000F0810020FBE700002DE9F84306460C46E1
:103D8000D6F8B8520027B846002000908146207827
:103D900000F0600090B3202870D16078801E0A285F
:103DA00023D2DFE800F0130822222222221A0F0574
:103DB000A078286420E0012205F14001304600F09F
:103DC00004F919E060880012686415E0012205F129
:103DD0004401304600F0F9F80EE00120E864E28882
:103DE0002946304600F0D0F806E02146304600F083
:103DF000BFF84FF0020900BF00BF70E0FFE7607836
:103E000030B1062815D00A2839D00B2857D148E000
:103E100096F89C02032805D102226946304600F03C
:103E2000D4F805E02146304600F0A2F84FF0020930
:103E30004CE060882221B1EB202F0BD1E0882228B2
:103E400001DD222000E0E0880746D6F8BC02D0F869
:103E500000800DE060882121B1EB202F08D1DFF830
:103E60008880E088092801D9092000E0E088074619
:103E70003A464146304600F0A8F827E028E096F898
:103E80009C02032806D1012205F14801304600F0CA
:103E90009CF805E02146304600F06AF84FF0020930
:103EA00014E096F89C02032802D1A078A86405E0EB
:103EB0002146304600F05CF84FF0020906E021464A
:103EC000304600F055F84FF0020900BF00BF06E091
:103ED0002146304600F04CF84FF0020900BF00BF09
:103EE0004846BDE8F88300004401002070B5044650
:103EF0000D46D4F8B4022946426820469047002077
:103F000070BD70B504460D4694F89C02012804D09B
:103F1000022803D003280CD101E000BF00BF68884D
:103F2000012805D10020C4F8A402204600F05EF864
:103F300004E02946204600F01BF800BF00BF70BD1A
:103F400070B506460C4615462B46224600213046E3
:103F500000F01AFC002070BD70B506460C461546F0
:103F60002B4622460021304600F0F9FC002070BDAF
:103F700070B504460D468021204600F0B5FC0021B6
:103F8000204600F0B1FC70BD70B504460E461546E3
:103F90000320C4F894024FF4AE700551001D055182
:103FA0002B4632460021204600F0EEFB002070BD7B
:103FB00010B504460520C4F8940200231A46194699
:103FC000204600F0E1FB002010BD70B504460E460F
:103FD00015460220C4F89402E56125622B4632465C
:103FE0000021204600F0BBFC002070BD10B5044647
:103FF0000420C4F8940200231A461946204600F013
:10400000AEFC002010BD000070B505460C462DB971
:104010002246064906A000F0EFF904E022460349D3
:1040200003A000F0E9F9014870BD00002805002058
:10403000437573746F6D2048494420436F6E666901
:104040006700000002461220088001487047000007
:104050001C00002070B505460C462DB922460649C5
:1040600006A000F0C9F904E02246034903A000F0CD
:10407000C3F9014870BD0000280500204375737422
:104080006F6D2048494420496E74657266616365AE
:10409000000000000246042008800148704700002C
:1040A0003000002070B505460C462246024903A0A8
:1040B00000F0A2F9004870BD2805002053544D6956
:1040C00063726F656C656374726F6E696373000011
:1040D00070B505460C462DB92246064906A000F0EB
:1040E0008BF904E02246034903A000F085F901485A
:1040F00070BD00002805002053544D333220437515
:1041000073746F6D2048756D616E20696E74657291
:10411000666163650000000070B505460C461A2014
:104120002080FCF7B9FC014870BD0000340000207D
:1041300070B504460D46E888012804D0294620467B
:10414000FFF716FF1EE094F89C02012804D0022815
:1041500003D0032810D109E000BF0020A060012295
:1041600004F108012046FFF730FF0AE00122211D7B
:104170002046FFF72AFF04E029462046FFF7F8FE15
:1041800000BF00BF70BDF8B504460E460020009089
:104190000027002570880012082875D2DFE800F09B
:1041A000C7040C20C7C7A5B5207CD4F8B0120A6894
:1041B000694690470746C1E0207C40B9D4F8B40274
:1041C000816A6846884707460220787007E0D4F87D
:1041D000B402C16A68468847074602207870ADE09D
:1041E000B078062878D2DFE800F00316293C506347
:1041F000D4F8B002406838B1207CD4F8B0124A68D4
:1042000069469047074605E031462046FFF7B0FE75
:10421000681CC5B267E0D4F8B002806838B1207C71
:10422000D4F8B0128A6869469047074605E03146DF
:104230002046FFF79DFE681CC5B254E0D4F8B002DA
:10424000C06838B1207CD4F8B012CA68694690477B
:10425000074605E031462046FFF78AFE681CC5B2D6
:1042600041E0D4F8B002006938B1207CD4F8B01233
:104270000A6969469047074605E031462046FFF740
:1042800077FE681CC5B22EE051E0D4F8B002406958
:1042900038B1207CD4F8B0124A6969469047074685
:1042A00005E031462046FFF763FE681CC5B21AE000
:1042B000D4F8B002806940B1207CD4F8B0128A6989
:1042C00069469047074606E006E031462046FFF77C
:1042D0004FFE681CC5B206E031462046FFF748FE97
:1042E000681CC5B200BF00BF28E0207C30B9D4F8FC
:1042F000B402416B68468847074605E031462046D0
:10430000FFF736FE681CC5B218E0207C40B9D4F82F
:10431000B402016B6846884707460720787005E0BD
:1043200031462046FFF724FE681CC5B206E0314640
:104330002046FFF71DFE681CC5B200BF00BF05B1D7
:10434000F8BDBDF8000088B1F08878B1F088BDF8FC
:104350000010884202DDBDF8000000E0F088009007
:10436000BDF8002039462046FFF72FFEF08810B92F
:104370002046FFF73BFE00BFE2E70146002002E0D7
:10438000421CD0B2491C0A78002AF9D1704770B596
:1043900004460D462946204600F07FF970BD70B5F1
:1043A00004460D4694F89C02012804D0022803D04C
:1043B00003281AD101E000BF00BFE888022804D01A
:1043C00029462046FFF7D4FD14E00120E060D4F830
:1043D000A40218B1E06840F00200E060022204F19B
:1043E0000C012046FFF7F1FD04E029462046FFF7C7
:1043F000BFFD00BF00BF70BD2DE9F04104460D4672
:1044000017460026FCB12046FFF7B7FF022101EB5B
:10441000400038803A783046711CCEB22A540322CC
:104420003046711CCEB22A540AE014F8012B3046F3
:10443000711CCEB22A5400223046711CCEB22A54CE
:1044400020780028F1D1BDE8F0810146002031B18B
:10445000012906D0022906D0032908D105E0002051
:1044600007E0022005E0012003E0022001E0022035
:1044700000BF00BF704770B504460D4616460CB924
:10448000022070BDD4F8B40210B10020C4F8B40208
:104490000DB1C4F8B052012084F89C022670204669
:1044A00000F004F90020ECE72DE9F04104460D4648
:1044B000002600272946D4F8C002FCF703FE064672
:1044C0003046FFF7C2FF07463846BDE8F0812DE9C8
:1044D000F04104460D46002600272946D4F8C002C4
:1044E000FCF7BBFD06463046FFF7AFFF07463846F0
:1044F000BDE8F0812DE9F04104460E461746002E36
:1045000064D104F11405D4F89402022848D1D5E905
:104510000301884210D9D5E90301401AE860A8894F
:1045200082B239462046FFF717FD00231A46194686
:10453000204600F029F93EE02969A868B0FBF1F2B5
:1045400001FB1200B8B92969A868884213D3A8688A
:10455000D4F8981288420ED2002211462046FFF766
:10456000FBFC0020C4F8980200231A461946204696
:1045700000F00AF91FE0D4F8B402C06840B194F822
:104580009C02032804D1D4F8B402C16820468847AD
:104590008021204600F0A8F92046FFF709FD0AE037
:1045A000D4F89402042802D0D4F8940218B98021D7
:1045B000204600F099F994F8A002012818D120466D
:1045C00000F001FA002084F8A00211E0D4F8B4024F
:1045D000406950B194F89C02032806D1D4F8B40283
:1045E000314642692046904702E00220BDE8F08152
:1045F0000020FBE72DE9F04104460E461746BEBBFE
:1046000004F5AA75D4F89402032825D1D5E903014D
:10461000884210D9D5E90301401AE860D5E90301C1
:10462000884201D2E86800E0286982B23946204613
:10463000FFF786FC2FE0D4F8B402006940B194F88B
:104640009C02032804D1D4F8B402016920468847AB
:104650002046FFF7CBFC1EE0D4F8940205281AD1BF
:104660000020C4F894020021204600F03DF912E039
:10467000FFE7D4F8B402806950B194F89C02032893
:1046800006D1D4F8B402314682692046904702E050
:104690000220BDE8F0810020FBE770B504460D461E
:1046A0002946D4F8C002FDF796F870BD10B504464F
:1046B0001948C0F8D442C4F8C00218481649086026
:1046C0000820087102211448817100218172C17291
:1046D0000173FDF738FA08B1FCF7DBF91823002263
:1046E0001146D4F8C002FCF775FC58230022802143
:1046F000D4F8C002FCF76EFC982300228121D4F884
:10470000C002FCF767FCD82300220121D4F8C002C4
:10471000FCF760FC002010BD28070020005C004072
:1047200010B50246D2F8C03201F08000802809D1CD
:1047300001F07F0000EB800403F1100000EBC400E7
:10474000807810BD01F07F0000EB800403F5A870B5
:1047500000EBC4008078F4E72DE9F04704460F46EB
:1047600015461E464FF00008C1462B4632463946D4
:10477000D4F8C002FDF73AF880464046FFF765FEE0
:1047800081464846BDE8F0872DE9F04704460D46CE
:1047900016461F464FF00008C1463B4632462946A2
:1047A000D4F8C002FDF764F880464046FFF74DFE9E
:1047B00081464846BDE8F08710B5044640230022F4
:1047C00011462046FFF7C8FF01214FF4AC7001519C
:1047D00040214FF4B2700151402300228021204635
:1047E000FFF7BAFF0121A16140216162012084F835
:1047F0009C020020C4F894026060C4F8A402D4F8BB
:10480000B80228B12179D4F8B40242682046904712
:10481000002010BD014691F89C02042803D191F8B4
:104820009D0281F89C020020704710B5044694F860
:104830009C02032808D1D4F8B402C06920B1D4F88E
:10484000B402C16920468847002010BD0246117499
:10485000002070472DE9F04104460D460026002750
:104860002946D4F8C002FDF74FFA06463046FFF756
:10487000ECFD07463846BDE8F08170B504460D46AC
:10488000294604F52A7000F082F80120C4F8940249
:1048900040F2AE20005BC4F8980294F8A80200F041
:1048A0001F0020B1012808D0022812D10BE004F526
:1048B0002A71204600F04FF913E004F52A712046D2
:1048C00000F0B6FA0DE004F52A71204600F094F9E4
:1048D00007E094F8A80200F08001204600F004F8F8
:1048E00000BF00BF002070BD2DE9F04104460D4619
:1048F000002600272946D4F8C002FCF7D7FF064659
:104900003046FFF7A2FD07463846BDE8F08170B596
:10491000044600250026D4F8C002FDF718FA054623
:104920002846FFF792FD0646304670BD70B5044636
:1049300000250026D4F8C002FDF727FA05462846D0
:10494000FFF783FD0646304670BD014691F89C0294
:1049500081F89D02042081F89C02002070472DE917
:10496000F04704460D4616461F464FF00008C14664
:104970003B4632462946D4F8C002FCF7DBFF8046AE
:104980004046FFF762FD81464846BDE8F0870A7859
:1049900002704A7842708B78CA7803EB0222428018
:1049A0000B794A7903EB022282808B79CA7903EB77
:1049B0000222C28070470246002011B1C2F8B41230
:1049C00000E00220704701460020704770B50446A1
:1049D0000D46A88810BBE88800BB688880281DD2D7
:1049E000A87800F07F0694F89C02032804D1294699
:1049F0002046FFF7BDFA15E084F89E623146204656
:104A0000FFF728FF2046FFF7F1FA1EB1022084F8D5
:104A10009C0207E0012084F89C0203E0294620461E
:104A2000FFF7A6FA70BD70B504460D460226D4F80D
:104A3000B40238B1D4F8B40229460268204690473F
:104A400000B90026304670BD70B504460D46A87802
:104A50003649087008460078012804DD29462046BA
:104A6000FFF786FA60E094F89C02022802D003283F
:104A70004FD11CE02D480078A8B12C480078606028
:104A8000032084F89C02294801782046FFF7CBFFD9
:104A9000022804D129462046FFF76AFA70BD204655
:104AA000FFF7A4FA02E02046FFF7A0FA3BE01F4818
:104AB000007870B9022084F89C021C48007860607D
:104AC0001A4801782046FFF711FA2046FFF78EFAC0
:104AD0001EE0164909786068884216D02179204680
:104AE000FFF704FA1148007860601048017820460A
:104AF000FFF799FF022804D129462046FFF738FA2C
:104B0000CCE72046FFF772FA02E02046FFF76EFA84
:104B100009E029462046FFF72BFA04480178204691
:104B2000FFF7E4F900BF00BF00BFB7E78400002033
:104B300070B505460C466088012804D1C5F8A4026A
:104B40002846FFF753FA70BD10B504462046FFF71C
:104B5000DEFE002010BD70B505460C46002620780C
:104B600000F0600060B1202802D040283CD100E075
:104B700000BFD5F8B402214682682846904738E045
:104B800060780A2829D2DFE800F01923281E280AB5
:104B90000528140F21462846FFF7F5FA22E02146A2
:104BA0002846FFF713FF1DE021462846FFF74CFF7C
:104BB00018E021462846FFF7BBFA13E021462846B5
:104BC000FFF7EDFB0EE021462846FFF7B1FF09E0B5
:104BD00021462846FFF795F904E021462846FFF7CD
:104BE000C7F900BF00BF04E021462846FFF7C0F91F
:104BF00000BF00BF304670BD2DE9F04105460E46AE
:104C00004FF000083479307800F0600060B120285F
:104C100002D0402871D100E000BFD5F8B40231467F
:104C200082682846904700E1307800F06000202834
:104C300009D1D5F8B40231468268284690478046AB
:104C40004046BDE8F081707800285ED001282FD062
:104C5000032876D195F89C02022802D0032820D19F
:104C600010E054B1802C08D021462846FFF73CFEC6
:104C700080212846FFF738FE03E031462846FFF73B
:104C800077F913E0708840B93CB1802C05D0F088EA
:104C900018B921462846FFF727FE2846FFF7A6F950
:104CA00004E031462846FFF763F900BF00BFB5E0D6
:104CB00095F89C02022802D003281FD110E054B1BD
:104CC000802C08D021462846FFF70EFE802128467A
:104CD000FFF70AFE03E031462846FFF749F912E0E4
:104CE000708848B904F07F0018B121462846FFF7C4
:104CF000DBFB2846FFF77AF905E091E031462846CC
:104D0000FFF736F900BF00BF88E095F89C02022843
:104D100002D0032876D126E034B1802C04D031466D
:104D20002846FFF725F972E004F08000802809D1B9
:104D300004F07F0000EB800105F1140000EB81001E
:104D400008E066E004F07F0000EB800105F5AA7042
:104D500000EB8100074600203860022239462846D1
:104D6000FFF733F953E004F0800080280ED104F0FF
:104D70000F0000EB800105F1140000EB810040689A
:104D800098B931462846FFF7F3F840E004F00F00E9
:104D900000EB800105F5AA7000EB8100406820B9A6
:104DA00031462846FFF7E4F831E004F0800080281F
:104DB00008D104F07F0000EB800105F1140000EB46
:104DC000810007E004F07F0000EB800105F5AA7088
:104DD00000EB810007460CB1802C02D10020386026
:104DE00009E021462846FFF79BFC10B101203860FE
:104DF00001E000203860022239462846FFF7E5F836
:104E000005E0FFE731462846FFF7B2F800BF00BFD4
:104E100004E031462846FFF7ABF800BF00BF04E0CE
:104E200031462846FFF7A4F800BF00BF404608E718
:104E300070B505460C460026207800F0600030B1C1
:104E4000202802D040282AD100E000BF00BF95F8FA
:104E50009C02012804D0022803D0032818D101E0C5
:104E600000BF00BF207901280DDCD5F8B40221462F
:104E70008268284690470646E08840B93EB92846F1
:104E8000FFF7B4F803E021462846FFF771F804E085
:104E900021462846FFF76CF800BF00BF04E021461A
:104EA0002846FFF765F800BF00BF002070BD10B5B1
:104EB00004462179D4F8B40242682046904720463F
:104EC000FFF734FD002010BD704700000146014887
:104ED00070470000000A0020F0B50246002608785E
:104EE000400032F8100048F68F1400EA0403C87836
:104EF00030B101280CD0022805D003280BD104E0E2
:104F000043F4007309E000BF07E043F4C06304E02A
:104F100043F4806301E0012600BF00BF43F400407A
:104F200040F080000C78640022F8140000BF0C7878
:104F3000640032F8144048F68F752C400D7844EA2E
:104F4000050040F4004444F080040D786D0022F820
:104F5000154000BF087B00287ED14878002852D039
:104F600000BF1046B2F8505028440D7800F5806715
:104F700007EB0514CD886D106D00258000BF00BFC4
:104F80000C78640032F8140000F040048CB100BFCB
:104F90000D786D0032F8155048F68F7705EA070452
:104FA00044F4004545F0C0050F787F0022F8175003
:104FB00000BF00BFC878012813D000BF0C78640080
:104FC00032F8144048F6BF7504EA050080F020006E
:104FD00040F4004444F080040D786D0022F8154040
:104FE000D0E100BF0C78640032F8144048F6BF7579
:104FF00004EA050040F4004444F080040D786D009C
:1050000022F81540BEE100BF1046B2F850502844C7
:105010000D78042707EBC50500F5806707EB45040D
:10502000CD886D106D00258000BF00BF1546B2F819
:10503000504025440C78062707EBC40405F580672B
:1050400007EB4404204600BF0788C7F30907078021
:105050000F693E2F14D900E073E000BF0F697C098F
:105060000F7C07F01F0707B9641E07884FF4004C38
:105070004CEA842C1FFA8CFC47EA0C07078017E0E7
:105080000F6927B9078847F40047078010E000BF81
:105090000F697C080F7C07F0010707B1641C0788C3
:1050A0004FF6FF7C0CEA842C47EA0C07078000BF10
:1050B00000BF00BF00BF0C78640032F8140000F499
:1050C00080448CB100BF0D786D0032F8155048F661
:1050D0008F7705EA070444F4004545F481450F78CD
:1050E0007F0022F8175000BF00BF0878A8B900BFA2
:1050F0000C78640032F814404BF68F7504EA050012
:1051000080F4805080F4005040F4004444F0800467
:105110000D786D0022F8154034E100BF0C78640072
:1051200032F814404BF68F7504EA050080F4005005
:1051300040F4004444F080040D786D0022F81540DE
:1051400020E1C878022811D100BF0C78640032F841
:10515000144048F68F7504EA050040F4004444F416
:10516000C0740D786D0022F8154011E000BF0C7876
:10517000640032F8144048F68F6504EA050040F4F4
:10518000004444F080040D786D0022F8154000BF03
:1051900000BF00BF00BF1046B2F8505028440D7841
:1051A00000F5806707EB05140D896D106D002580F3
:1051B00000BF00BF00BF00BF1046B2F850502844E7
:1051C0000D78042707EBC50500F5806707EB45045C
:1051D0004D896D106D00258000BF00BF00BF48786D
:1051E000E8BB00BF0C78640032F8140000F480447F
:1051F0008CB100BF0D786D0032F8155048F68F77EE
:1052000005EA070444F4004545F481450F787F0022
:1052100022F8175000BF00BF00BF0C78640032F8BE
:10522000140000F040048CB100BF0D786D0032F81E
:10523000155048F68F7705EA070444F4004545F019
:10524000C0050F787F0022F8175000BF00BF00BFD5
:105250000C78640032F814404BF68F7500E020E0C3
:1052600004EA050080F4805080F4005040F40044CB
:1052700044F080040D786D0022F8154000BF00BF97
:105280000C78640032F8144048F6BF7504EA050053
:1052900040F4004444F080040D786D0022F815407D
:1052A00070E000BF0C78640032F8140000F4804411
:1052B0008CB100BF0D786D0032F8155048F68F772D
:1052C00005EA070444F4004545F481450F787F0062
:1052D00022F8175000BF00BF00BF0C78640032F8FE
:1052E000140000F040048CB100BF0D786D0032F85E
:1052F000155048F68F7705EA070444F4004545F059
:10530000C0050F787F0022F8175000BF00BFC87893
:10531000012813D000BF0C78640032F8144048F61E
:10532000BF7504EA050080F0200040F4004444F01A
:1053300080040D786D0022F8154011E000BF0C7854
:10534000640032F8144048F6BF7504EA050040F4E2
:10535000004444F080040D786D0022F8154000BF31
:1053600000BF0C78640032F814404BF68F7504EAE5
:10537000050040F4004444F080040D786D0022F8EC
:10538000154000BF3046F0BD10B50446002010BDEA
:1053900030B50246087B00285BD1487860B300BF77
:1053A0000B785B0032F8130000F040038BB100BFB4
:1053B0000C78640032F8144048F68F7504EA05034F
:1053C00043F4004444F0C0040D786D0022F8154009
:1053D00000BF00BF00BF0B785B0032F8133048F607
:1053E000BF7403EA040040F4004343F080030C78E8
:1053F000640022F8143007E100BF0B785B0032F83C
:10540000130000F480438BB100BF0C78640032F8C5
:10541000144048F68F7504EA050343F4004444F44D
:1054200081440D786D0022F8154000BF00BF00BF19
:105430000B785B0032F813304BF68F7403EA0400EC
:1054400040F4004343F080030C78640022F81430E9
:10545000DAE0487800286BD100BF0B785B0032F8A7
:10546000130000F480438BB100BF0C78640032F865
:10547000144048F68F7504EA050343F4004444F4ED
:1054800081440D786D0022F8154000BF00BF00BFB9
:105490000B785B0032F8130000F040038BB100BFC3
:1054A0000C78640032F8144048F68F7504EA05035E
:1054B00043F4004444F0C0040D786D0022F8154018
:1054C00000BF00BF00BF0B785B0032F8133048F616
:1054D0008F7403EA040040F4004343F0C0030C78E7
:1054E000640022F8143000BF00BF0B785B0032F874
:1054F00013304BF68F7403EA040040F4004343F08A
:1055000080030C78640022F8143000BF00BF0B78D1
:105510005B0032F8133048F6BF7403EA040040F42D
:10552000004343F080030C78640022F814306BE0F1
:1055300000BF0B785B0032F8130000F480438BB19E
:1055400000BF0C78640032F8144048F68F7504EA06
:10555000050343F4004444F481440D786D0022F8BF
:10556000154000BF00BF00BF0B785B0032F813008E
:1055700000F040038BB100BF0C78640032F8144097
:1055800048F68F7504EA050343F4004444F0C00470
:105590000D786D0022F8154000BF00BF00BF0B78EA
:1055A0005B0032F8133048F68F7403EA040040F4CD
:1055B000004343F481430C78640022F8143000BFA8
:1055C00000BF0B785B0032F8133048F6BF7403EA73
:1055D000040040F4004343F080030C78640022F898
:1055E000143000BF00BF0B785B0032F813304BF66D
:1055F0008F7403EA040040F4004343F080030C7806
:10560000640022F8143000BF002030BD01460020A5
:10561000704701460020704710B50446012024F869
:10562000400F00202080A0802082403C10BD014619
:105630004FF43F42B1F840009043A1F840000020F1
:10564000704702460020704730B50246087B0028AC
:1056500065D1487888B300BF0B785B0032F813003F
:1056600000F040038BB100BF0C78640032F81440A6
:1056700048F68F7504EA050343F4004444F0C0047F
:105680000D786D0022F8154000BF00BFC8780128D2
:1056900045D000BF0B785B0032F8133048F6BF747A
:1056A00003EA040080F0200040F4004343F080034C
:1056B0000C78640022F8143031E0FFE700BF0B786B
:1056C0005B0032F8130000F480438BB100BF0C780C
:1056D000640032F8144048F68F7504EA050343F479
:1056E000004444F481440D786D0022F8154000BF59
:1056F00000BF00BF0B785B0032F813304BF68F749D
:1057000003EA040080F4805080F4005040F4004329
:1057100043F080030C78640022F8143000BF0020AE
:1057200030BD10B50246487898B100BF0B785B00D9
:1057300032F8133048F6BF7403EA040080F010001A
:1057400040F4004343F080030C78640022F81430E6
:1057500013E000BF0B785B0032F813304BF68F7408
:1057600003EA040080F4805040F4004343F08003D7
:105770000C78640022F8143000BF002010BD2DE921
:10578000F04706460C466078012872D12169A0696D
:10579000884201D9256900E0A569207BA0B9ABB298
:1057A000E2883046616900F0FAFD00BF3046B6F885
:1057B000502010442278022303EBC20200F58063DC
:1057C00003EB42010D80C1E2E078022870D121692B
:1057D000206A88426DD900BF2178490036F811103F
:1057E00048F68F7201EA020040F4004141F4C071B2
:1057F0002278520026F8121000BF206A401B206257
:105800002078400036F8100000F04000002874D0E6
:1058100000BF3346607868BB00BF3246B6F8501010
:105820000A4421784FF0060909EBC10102F58069AD
:1058300009EB4101084600BFB0F80090C9F309091F
:10584000A0F800903E2D16D900BF690905F01F0988
:10585000B9F1000F00D1491EB0F800904FF4004A92
:105860004AEA812A1FFA8AFA49EA0A09A0F800904E
:105870001CE081E21EE035B9B0F8009049F400491F
:10588000A0F8009012E000BF690805F00109B9F125
:10589000000F00D0491CB0F800904FF6FF7A0AEADA
:1058A000812A49EA0A09A0F8009000BF00BF11E070
:1058B0007EE153E1607801280CD1B6F85000034432
:1058C0002078062101EBC00003F5806101EB400C5C
:1058D000ACF8005000BF6789ABB23A463046616908
:1058E00000F05DFD6069284460612169206A88429A
:1058F00004D9206A401B206203E05EE0256A002094
:10590000206200BF6078E0BB00BF3246B6F850109E
:105910000A442178022303EBC10102F5806303EB03
:105920004101084600BF0388C3F3090303803E2DED
:1059300010D900BF690905F01F0303B9491E038888
:105940004FF4004C4CEA812C1FFA8CFC43EA0C0308
:10595000038014E025B9038843F4004303800EE07C
:1059600000BF690805F0010303B1491C03884FF625
:10597000FF7C0CEA812C43EA0C03038000BF00BFCC
:1059800012E0FFE7607801280ED100BF3046B6F87C
:10599000502010442278022303EBC20200F58063FA
:1059A00003EB42010D8000BF00BF2789ABB23A462E
:1059B0003046616900F0F3FCC8E100BF6078E0BBED
:1059C00000BF3246B6F850100A442178022303EB98
:1059D000C10102F5806303EB4101084600BF038863
:1059E000C3F3090303803E2D10D900BF690905F0F8
:1059F0001F0303B9491E03884FF4004C4CEA812C65
:105A00001FFA8CFC43EA0C03038014E025B90388D9
:105A100043F4004303800EE000BF690805F0010372
:105A200003B1491C03884FF6FF7C0CEA812C43EA42
:105A30000C03038000BF00BF12E0FFE7607801287D
:105A40000ED100BF3046B6F8502010442278022311
:105A500003EBC20200F5806303EB42010D8000BF3F
:105A600000BF2789ABB23A463046616900F097FC27
:105A70006069284460612169206A884203D9206AEC
:105A8000401B206202E0256A0020206200BF3346EE
:105A90006078A0BB00BF3246B6F850100A442178A7
:105AA0004FF0060909EBC10102F5806909EB4101DC
:105AB000084600BFB0F80090C9F30909A0F80090AB
:105AC0003E2D14D900BF690905F01F09B9F1000F77
:105AD00000D1491EB0F800904FF4004A4AEA812AEA
