:020000040800F2
:1000000088190020C9010008016A00086F4E000825
:10001000B9690008F1090008D39E0008000000003B
:100020000000000000000000000000000174000853
:10003000E90A000800000000B57000080374000819
:10004000E3010008E3010008E3010008E301000800
:10005000E3010008E3010008E3010008E3010008F0
:10006000E3010008E3010008E3010008E3010008E0
:10007000E3010008E3010008E3010008E3010008D0
:100080009D0A0008AD0A0008E3010008E30100082A
:100090001D9E0008E3010008E3010008E3010008D9
:1000A000E301000891740008E3010008E30100087F
:1000B000E3010008E3010008E3010008854E0008A1
:1000C000754E0008E3010008E3010008E3010008A1
:1000D000E3010008E3010008E3010008E301000870
:1000E000E3010008E3010008E301000800F002F862
:1000F00000F05AF80AA090E8000C82448344AAF168
:100100000107DA4501D100F04FF8AFF2090EBAE865
:100110000F0013F0010F18BFFB1A43F0010318473B
:1001200018B9000038B900000A444FF0000C10F86C
:10013000013B13F0070408BF10F8014B1D1108BF65
:1001400010F8015B641E05D010F8016B641E01F805
:10015000016BF9D113F0080F1EBF10F8014BAD1C55
:100160000C1B09D16D1E58BF01F801CBFAD505E073
:1001700014F8016B01F8016B6D1EF9D59142D6D3CD
:10018000704700000023002400250026103A28BFF5
:1001900078C1FBD8520728BF30C148BF0B607047F9
:1001A0001FB51FBD10B510BD00F0E2F81146FFF7F6
:1001B000F7FF0AF077FA00F000F903B4FFF7F2FF57
:1001C00003BC00F003F900000948804709480047D4
:1001D000FEE7FEE7FEE7FEE7FEE7FEE7FEE7FEE7F7
:1001E000FEE7FEE704480549054A064B7047000054
:1001F0008F740008ED000008880F00208819002087
:100200008815002088150020032A40F2308010F065
:10021000030C00F0158011F8013BBCF1020F6244A1
:1002200098BF11F801CB00F8013B38BF11F8013B32
:10023000A2F1040298BF00F801CB38BF00F8013BDF
:1002400011F0030300F05A80083AC0F0088051F81A
:10025000043B083A51F804CBA0E80810F5E7121D5A
:100260005CBF51F8043B40F8043BAFF30080D20779
:1002700024BF11F8013B11F801CB48BF11F8012B45
:1002800024BF00F8013B00F801CB48BF00F8012B68
:1002900070474FF0000200B5134694469646203949
:1002A00022BFA0E80C50A0E80C50B1F12001BFF42F
:1002B000F7AF090728BFA0E80C5048BF0CC05DF895
:1002C00004EB890028BF40F8042B08BF704748BFE3
:1002D00020F8022B11F0804F18BF00F8012B704757
:1002E00070477047704710B500F03AF8006810BDCD
:1002F00010B5044600F034F8046010BD10B5203A83
:10030000C0F00B80B1E81850203AA0E81850B1E8CE
:100310001850A0E81850BFF4F5AF5FEA027C24BF84
:10032000B1E81850A0E8185044BF18C918C0BDE87B
:1003300010405FEA827C24BF51F8043B40F8043B44
:1003400008BF7047D20728BF31F8023B48BF11F8F9
:10035000012B28BF20F8023B48BF00F8012B704753
:1003600000487047280F002000487047280F0020E1
:100370007546FFF7F9FFAE4605006946534620F083
:100380000700854618B020B5FFF72CFFBDE82040D8
:100390004FF000064FF000074FF000084FF0000B41
:1003A00021F00701AC46ACE8C009ACE8C009ACE8F4
:1003B000C009ACE8C0098D46704710B50446AFF3DC
:1003C00000802046BDE81040FFF7F7BE0149182025
:1003D000ABBEFEE7260002007047000010B50446E1
:1003E00094F9020011281FD008DC012839D0022816
:1003F00038D0032853D0102852D108E0122820D03A
:1004000013282BD014282AD0152849D128E02648B3
:10041000007820F00100401C234908701222211DA1
:100420002248FFF7F1FE3CE01222211D2048FFF791
:10043000EBFE1D48007820F00200801C1A4908706D
:100440002FE01222211D1B48FFF7DEFE1648007820
:1004500020F00400001D1449087022E021E020E093
:100460001FE01EE02079212813D004DC012807D0EA
:10047000022811D10CE0A0280CD0A1280CD10AE050
:100480000948007820F0400040300749087004E037
:1004900003E002E001E000E000BF00BF01E000E097
:1004A00000BF00BF10BD00007E010020940D0020A1
:1004B000A60D0020B80D00202DE9F05F824602262F
:1004C000AE4C00274FF000084FF00009BAF1100FB2
:1004D0001ED008DCBAF1080F7ED2DFE80AF07DE218
:1004E000D3A87DFD94E1BAF1140F1FD009DCBAF155
:1004F000110F13D0BAF1120F16D0BAF1130F6BD13E
:1005000013E0BAF1150F12D0BAF1EF0FF7D1F8E0FE
:100510009B4FDFF87082DFF8709209E09B4FDFF8A5
:100520007082DFF8709203E002E000BF00BF00BFFE
:10053000EFB1386998490AF0EBFF83460AF06CFF87
:1005400000B28E498880786993490AF0E1FF8346BA
:100550000AF062FF00B28949C880B8698E490AF082
:10056000D7FF83460AF058FF00B284490881B8F1EA
:10057000000F20D0D8F8100087490AF0C9FF834641
:100580000AF04AFF00B27D494881D8F81400824938
:100590000AF0BEFF83460AF03FFF00B27749888128
:1005A000D8F818007C490AF0B3FF83460AF034FFFC
:1005B00000B27249C881B9F1000F22D0D9F81000F9
:1005C00075490AF0A5FF83460AF026FF00B26B4981
:1005D0000882D9F8140000E09AE06F490AF098FF09
:1005E00083460AF019FF00B264494882D9F818001E
:1005F00069490AF08DFF83460AF00EFF00B25F4999
:100600008882122685E0654800885C4988806348B6
:100610004088C8806148808808816048C0884881D7
:1006200000208881C88108824882102671E05C48D9
:10063000808800B2514988805948C08800B2C8807B
:100640005748008800B208815548408800B2488168
:100650005348008900B288815148408900B2C8815E
:100660004F48808900B208824D48C08900B2488254
:100670004B48808900B288824948C08900B2C8824C
:10068000142646E03D49474802684A6042688A604D
:100690008068C8600020088248828882122638E07C
:1006A00037E04149086841490AF032FF83460AF0C1
:1006B000B3FE404200B2314988803B4948683B491B
:1006C0000AF026FF83460AF0A7FE00B22B49C88035
:1006D00035498868354900E012E00AF019FF834681
:1006E0000AF09AFE404200B2244908810020488165
:1006F00088812F480078000200B2C8810C2608E0EB
:1007000007E02C48B0F900001C498880022600E070
:1007100000BF00BF4AF6AA201849088046EA0A200E
:1007200000B248805421301D215402251AE0605740
:10073000691C615648406055681C20566157484006
:10074000691C60546057615648406055615D681C83
:10075000205C0144301D205C084441B2301D21540E
:10076000A81CC5B2301D8542E1DB701DC1B2204618
:1007700009F0D4FA09F0E8FABDE8F09FCA0D0020AC
:10078000DC0B0020100C0020440C0020AC0C0020DE
:10079000780C0020E00C002000007A44700100205A
:1007A000B40B0020C40B0020D00B00200000C84276
:1007B0006C0100207C0100202DE9F8437B48007883
:1007C00020B1012806D002287ED10DE00120774912
:1007D0000870E7E00120FFF76FFE7548007810B160
:1007E000022072490870DDE07148007810B90120DC
:1007F0006E4908706E480078C0F3801088B11020F0
:10080000FFF75AFE0F2009F007FF1120FFF754FEF3
:100810000F2009F001FF6648007820F0400064498D
:1008200008706348007800F03F0000287DD0002564
:10083000002600275E48007800F0010050B15D4DB1
:100840005D4E5E4F5E4C5A48007820F001005849DA
:10085000087016E056480078C0F3400050B1594D7A
:10086000594E5A4F5A4C5248007820F002005049D5
:10087000087006E001204D49087000204C490870BE
:1008800090E075B320788DF8010060788DF8000055
:10089000BDF800000AF0F4FD80464E490AF0FAFC6B
:1008A0002861A0788DF80100E0788DF80000BDF88F
:1008B00000000AF0E5FD804646490AF0EBFC68615D
:1008C00020798DF8010000E06BE060798DF8000080
:1008D000BDF800000AF0D4FD80463E490AF0DAFC7B
:1008E000A86176B3A0798DF80100E0798DF8000059
:1008F000BDF800000AF0C4FD804636490AF0CAFC83
:100900003061207A8DF80100607A8DF80000BDF822
:1009100000000AF0B5FD80462E490AF0BBFC70616C
:10092000A07A8DF80100E07A00E039E08DF800004F
:10093000BDF800000AF0A4FD804626490AF0AAFC92
:10094000B06167B3207B8DF80100607B8DF80000FB
:10095000BDF800000AF094FD80461E490AF09AFC9A
:100960003861A07B8DF80100E07B8DF80000BDF8B8
:1009700000000AF085FD804616490AF08BFC78617C
:10098000207C8DF80100607C8DF80000BDF800002F
:100990000AF076FD80460F490AF07CFCB86100BF82
:1009A00000E000BF00BFBDE8F88300007F01002029
:1009B0007E010020DC0B0020100C0020440C0020E5
:1009C000940D0020AC0C0020780C0020E00C0020DE
:1009D000A60D002000007A4410B506F0BDF805F021
:1009E000EDFF05F01FFD06F0A7FE06F031F810BD83
:1009F00000BFFEE700207047002070472DE9F04758
:100A0000804689460121224807F07BFAC6B2204879
:100A1000D0F8B872324639461E48FFF7F5FB1D483C
:100A20004078AA2830D11B488078AF282CD10025E7
:100A3000012405E01748005D2844C5B2601CC4B21B
:100A400014480078A042F5DC124800781149085C8F
:100A5000A84215D10846007910280DDB08464079D8
:100A6000152809DC0846007945EA002000B20A4949
:100A70000880EF20FFF720FD0648401CFFF7AEFC82
:100A800000200449487000BF0020BDE8F087000046
:100A9000C0030020140D00207C01002010B5024886
:100AA00000F074FC10BD00009402002010B5024854
:100AB00000F06CFC10BD00005002002030B590F832
:100AC00040500124AC40C56B6C60046863604468AE
:100AD000102C04D10468A2600468E16003E004689B
:100AE000A1600468E26030BD704772B600BFFEE7E7
:100AF00007B5A4B04FF07C5126980AF009FD11907B
:100B0000FE4880680D90FD4800680C900D990AF031
:100B1000FFFC0F90F948C0680D90F84840680C90B1
:100B20000D990AF0F5FC0E900F990AF0F9FD4FF0BF
:100B3000804110900AF0ECFC2090F048C0680D90C5
:100B4000EE4880680C900D990AF0E2FC0F90EB489B
:100B500040680D90E94800680C900D990AF0D8FCA7
:100B60000E900F990AF028FB4FF0804110900AF088
:100B7000CFFC2190E14880680C90E04880680B90A1
:100B80000C990AF0C5FC0E90DC4840680C90DB48DC
:100B900040680B900C990AF0BBFC0D900E990AF07E
:100BA0000BFB4FF080410F900AF0B2FC4FF07E51EA
:100BB00010900AF0AAFD2290D148B0F904000B90E1
:100BC0000AF046FC0D90CE48B0F904000B900AF0F4
:100BD0003FFC0C900D990AF09BFC0F90C848B0F9AF
:100BE000020009900AF034FC0B90C548B0F90200ED
:100BF00009900AF02DFC0A900B990AF089FC0D90DF
:100C0000BF48B0F9000009900AF022FC0B90BC48E4
:100C1000B0F9000009900AF01BFC0A900B990AF049
:100C200077FC0C900D990AF0C7FA0E900F990AF014
:100C3000C3FA109006F0B0FAB24908602498B0F9EF
:100C400000000F900AF004FC1090AE480168109864
:100C50000AF05EFC1D902498B0F902000F900AF093
:100C6000F7FB1090A748016810980AF051FC1E90FD
:100C70002498B0F904000F900AF0EAFB1090A14804
:100C8000016810980AF044FC1F9021980E901F985C
:100C90000D900E990AF03CFC109022980E901E9830
:100CA0000D900E990AF034FC0F9010990AF038FD5F
:100CB000179022980E901D980D900E990AF028FC1E
:100CC000109020980E901F980D900E990AF020FC1D
:100CD0000F9010990AF024FD189020980E901E98FD
:100CE0000D900E990AF014FC109021980E901D980A
:100CF0000D900E990AF00CFC0F9010990AF010FD5F
:100D0000199017980F90804801680F980AF000FC1E
:100D100010907E48006801460F9010980AF04CFA37
:100D20007A49086018980F90774801680F980AF080
:100D3000EFFB10907548406801460F9010980AF03C
:100D40003BFA7249486019980F906F4801680F98F4
:100D50000AF0DEFB10906D48806801460F901098F5
:100D60000AF02AFA69498860179801460D90684888
:100D700000680AF0CDFB0F902498B0F906000C90A3
:100D80000AF066FB0D90634801680D980AF0C0FBFD
:100D90000E900F990AF010FA10905C480068014616
:100DA0000F9010980AF008FA1A90189801460D90C2
:100DB000574800680AF0ACFB0F902498B0F908007F
:100DC0000C900AF045FB0D90524801680D980AF00E
:100DD0009FFB0E900F990AF0EFF910904B48406876
:100DE00001460F9010980AF0E7F91B9019980146F8
:100DF0000D90474800680AF08BFB0F902498B0F9DB
:100E00000A000C900AF024FB0D90424801680D98EE
:100E10000AF07EFB0E900F990AF0CEF910903B4835
:100E2000806801460F9010980AF0C6F91C901C9833
:100E30000D903248C0680C900D990AF069FB0F9034
:100E40001B980B902D4880680A900B990AF060FB64
:100E50000D902A48406880F000400B901A98014697
:100E60000A900B980AF054FB0C900D990AF058FC6C
:100E70000E900F990AF054FC109011990AF048FB5B
:100E800016901C980D901D4880680C900D990AF0E2
:100E90003FFB0F901B980B901848C0680A900B9965
:100EA0000AF036FB0D901A980B90144800680A90CF
:100EB0000B990AF02DFB0C900D990AF031FC0E9065
:100EC0000F990AF079F9109011990AF021FB159009
:100ED0001C980D90094840680C900D990AF018FB79
:100EE0000F901B980B90054800680A900B990AF028
:100EF0000FFB0D901A980B9000480DE0E4010020C4
:100F0000C40B0020E0010020F80100201C0F00208D
:100F1000F401002040B90008C0680A900B990AF05B
:100F2000F7FA0C900D990AF047F90E900F990AF014
:100F3000F7FB109011990AF0EBFA14901C980D90A1
:100F4000B94800680C900D990AF0E2FA0F901B98CE
:100F50000B90B54840680A900B990AF0D9FA0D90A9
:100F6000B148806880F000400B901A9801460A90C2
:100F70000B980AF0CDFA0C900D990AF01DF90E901D
:100F80000F990AF019F9109011990AF0C1FA13900B
:100F9000A5480068109016990AF00EF9A249086059
:100FA00008464068109015990AF006F99E49486075
:100FB00008468068109014990AF0FEF89A498860F3
:100FC0000846C068109013990AF0F6F89649C86070
:100FD0000846C0680D900846C0680C900D990AF04C
:100FE00097FA0F90904880680B908F4880680A901D
:100FF0000B990AF08DFA0D908B48406809908A4849
:101000004068089009990AF083FA0B9086480068B6
:10101000099085480068089009990AF079FA0A90C1
:101020000B990AF0C9F80C900D990AF0C5F80E90CA
:101030000F990AF0C1F8109006F0AEF812907A48B5
:101040000068109012990AF063FA77490860084620
:101050004068109012990AF05BFA7349486008469C
:101060008068109012990AF053FA6F498860084618
:10107000C068109012990AF04BFA6B49C860249826
:10108000B0F90A000E900AF0E3F90F906748016882
:101090000F980AF03DFA10904FF07E5110980AF028
:1010A00003FB04D3624910980AF0FEF90DD2269989
:1010B00010980AF02DFA0F902598806801460E903E
:1010C0000F980AF079F8259988605A4800680AF064
:1010D00047F8CDE90C0154484068014603904FF0B1
:1010E00080400AF015FA04904F48C068014603900A
:1010F00004980AF00DFA06904B48006801460390E8
:101100004FF080400AF004FA049047488068014696
:10111000039004980AF0FCF9059006990AF000FB88
:1011200007900AF01DF8CDE9080108F06DFFCDE940
:101130000A01DDE90C2309F039FDCDE90E0109F0C2
:10114000FBFA259948603B4800680AF009F8CDE9A8
:101150000C0135488068014601904FF080400AF04C
:10116000D7F90290304880680146019002980AF051
:10117000CFF904902C484068014600904FF0804021
:101180000AF0C6F90190284840680146009001988D
:101190000AF0BEF94FF07E5102900AF0B6FA0390C1
:1011A00004990AF0BDFA059009F0DAFFCDE90801CB
:1011B0001D480068014601904FF080400AF0A8F9F0
:1011C0000290194840680146019002980AF0A0F97F
:1011D000049015488068014601904FF080400AF065
:1011E00097F902901048C0680146019002980AF0F1
:1011F0008FF90390049909F0DFFF059009F0B0FF23
:10120000CDE90601DDE9082309F046F9CDE90A0137
:10121000DDE90C2309F0CAFCCDE90E0109F08CFAD6
:101220002599086027B000BDE40100203CB9000802
:10123000000080BF34B9000870B50A480468001D7A
:101240000568001D0668344454B10822064920464A
:1012500005F0C9F8042204491031284605F0C3F806
:1012600070BD0000E8F7FF1F3600002070B504468F
:10127000002594F82100022803D00420A063012552
:1012800048E02068006820F00E00216808602068AF
:10129000006820F00100216808601F49206888422A
:1012A00001D1012026E01C4914312068884201D177
:1012B00010201FE0184928312068884201D180158C
:1012C00018E015493C312068884201D1801411E0B2
:1012D000114950312068884202D14FF4803009E032
:1012E0000D4964312068884202D14FF4801001E03A
:1012F0004FF08070084908394860012084F82100C7
:1013000000BF002084F8200000BF606B10B12046B1
:10131000616B8847284670BD08000240014609B944
:10132000012070470868006820F001000A6810601A
:1013300000200A6810600A6850600A6890600A68B5
:10134000D0600F4A0868801A1422B0FBF2F08000C7
:1013500008640B480838C86391F840200120904089
:10136000CA6B506000208862C86208634863886363
:1013700081F8210000BF81F8200000BF00BFD0E746
:1013800008000240014691F82100704770B50446FC
:10139000E06B05682068066894F8401004208840D7
:1013A0002840002846D006F00400002842D02068DB
:1013B000006800F0200028B92068006820F00400D0
:1013C0002168086057492068884201D1042027E03D
:1013D000544914312068884201D1402020E051490D
:1013E00028312068884201D1001519E04D493C316F
:1013F0002068884202D14FF4804011E049495031C1
:101400002068884202D14FF4802009E045496431C8
:101410002068884202D14FF4800001E04FF08060E4
:10142000404908394860E06A00287AD02046E16ADD
:10143000884776E094F84010022088402840A0B306
:1014400006F0020088B32068006800F0200040B970
:101450002068006820F00A0021680860012084F8F4
:10146000210030492068884201D1022028E02D491E
:1014700014312068884201D1202021E029492831F7
:101480002068884201D140151AE026493C31206885
:10149000884202D14FF4005012E0224950312068B6
:1014A000884203D14FF400300AE017E01D4964314F
:1014B0002068884202D14FF4001001E04FF0007024
:1014C00018490839486000BF002084F8200000BF98
:1014D000A06A30B32046A16A884722E094F8401001
:1014E000082088402840E0B106F00800C8B1206814
:1014F000006820F00E002168086094F84010012078
:101500008840E16B48600120A06384F8210000BF9F
:10151000002084F8200000BF206B10B12046216B12
:10152000884770BD080002400146002209B9012029
:101530007047164B0868C01A1423B0FBF3F0800004
:10154000086412480838C863022081F8210008683E
:10155000026843F6F0708243D1E901031843CB6877
:1015600018430B6918434B6918438B691843CB69BF
:10157000184302430868026000208863012081F854
:101580002100002081F8200000BFD1E708000240C0
:101590002DE9F04104460D4616461F464FF000085F
:1015A00000BF94F82000012802D10220BDE8F0819C
:1015B000012084F8200000BF94F8210001282CD1DC
:1015C000022084F821000020A0632068006820F039
:1015D0000100216808603B46324629462046FFF755
:1015E0006DFAE06A30B12068006840F00E002168B2
:1015F00008600BE02068006820F0040021680860A3
:101600002068006840F00A002168086020680068CF
:1016100040F001002168086006E000BF002084F867
:10162000200000BF4FF002084046BFE770B50446F7
:1016300000F04AFA06462546681C10B104480078B6
:10164000054400BF00F040FA801BA842FAD370BDE9
:10165000640100202DE9F04102460B46002080E0A5
:101660000127874007EA0301002979D0404F4FEA5C
:10167000900C57F82C4087074FEA177C0F2707FA82
:101680000CF73C403B4FBA4201D100270FE03A4FE4
:10169000BA4201D101270AE0384FBA4201D10227EC
:1016A00005E0374FBA4201D1032700E004274FEA93
:1016B000807C4FEA1C7C07FA0CF7A74231D1314FEE
:1016C0003F688F43DFF8BCC0CCF800700CF1040712
:1016D0003F688F430CF1040CCCF80070294F0C3795
:1016E0003F688F43DFF89CC00CF10C0CCCF8007005
:1016F000ACF104073F688F43ACF1040CCCF80070E8
:1017000087074FEA177C0F2707FA0CF4184F4FEAA8
:10171000900C57F82CC02CEA040C4FEA900847F8BC
:1017200028C0FF2901D8174600E0171D3D46FF29B4
:1017300001D8870002E0A0F10807BF003E462F68ED
:101740004FF00F0C0CFA06FC27EA0C074FF0040CC4
:101750000CFA06FC47EA0C072F60D7688F43D76066
:10176000401C23FA00F7002F7FF47AAFBDE8F08128
:101770000800014000080140000C01400010014039
:1017800000140140000401402DE9F84703460022FF
:1017900094466EE14FF0010808FA02F4D1F8008097
:1017A00008EA0400A0427DD1DFF8DCA2D1F8048071
:1017B000A8EB0A09D0453AD014DCB8F1030F50D099
:1017C00009DCB8F1000F31D0B8F1010F1CD0B8F12D
:1017D000020F49D120E0B8F1110F18D0B8F1120F63
:1017E00042D11EE0B9F5881F25D006DCB9F5803F4F
:1017F00020D0B9F5801F37D11AE0B9F5001F18D0F5
:10180000B9F5041F30D117E0D1F80CC02DE0D1F8A4
:101810000C8008F1040C28E0D1F80C8008F1080CC9
:1018200023E0D1F80C8008F10C0C1EE000BF00BFD3
:1018300000BF00BF00BF00BFD1F80880B8F1000FA3
:1018400002D14FF0040C0BE0D1F80880B8F1010F81
:1018500003D14FF0080C1C6102E04FF0080C5C61F2
:1018600003E04FF0000C00E000BF00BFFF2801D8EC
:10187000984601E003F104084646FF2802D84FEAE3
:10188000820803E0A2F108084FEA88084746D6F824
:1018900000804FF00F0909FA07F928EA09080CFA45
:1018A00007F900E088E048EA0908C6F80080D1F8A6
:1018B000048008F08058B8F1805F7DD100BFDFF868
:1018C000CC81D8F8188048F00108DFF8C091C9F839
:1018D0001880C846D8F8188008F00108CDF80080B4
:1018E00000BF00BF4FEAB9384FEA920958F82950B3
:1018F0004FEA82784FEA18794FF00F0808FA09F892
:1019000025EA0805DFF88881434502D14FF0000839
:1019100016E0DFF88081434502D14FF001080FE067
:10192000DFF87481434502D14FF0020808E0DFF888
:101930006C81434502D14FF0030801E04FF00408E9
:101940004FEA82794FEA197908FA09F848EA050559
:10195000DFF84C814FEA920948F82950D1F8048009
:1019600008F48018B8F5801F0AD1DFF83881D8F85C
:10197000008048EA0008DFF82C91C9F8008009E0EF
:10198000DFF82081D8F8008028EA0008DFF81491F9
:10199000C9F80080D1F8048008F40018B8F5001FD9
:1019A00010D1DFF8008108F10408D8F8008048EA77
:1019B0000008DFF8F09000E05AE009F10409C9F8E6
:1019C00000800DE0DFF8DC8008F10408D8F8008022
:1019D00028EA0008DFF8CC9009F10409C9F8008072
:1019E000D1F8048008F40038B8F5003F0ED1DFF8D4
:1019F000B480A8F10408D8F8008048EA0008DFF8AD
:101A0000A490A9F10409C9F800800DE0DFF89480E2
:101A1000A8F10408D8F8008028EA0008DFF88490CC
:101A2000A9F10409C9F80080D1F8048008F48038CD
:101A3000B8F5803F0ED1DFF86C80A8F10808D8F81F
:101A4000008048EA0008DFF85C90A9F10809C9F8AD
:101A500000800DE0DFF84C80A8F10808D8F800807D
:101A600028EA0008DFF83C90A9F10809C9F80080CD
:101A7000521CD1F8008028FA02F8B8F1000F7FF468
:101A800089AEBDE8F8870000000011100010024088
:101A900000080140000C014000100140001401400A
:101AA000080001400804014010B5C26821EA0203A1
:101AB00002EA010443EA0443036110BD0AB1016173
:101AC00001E00B04036170470148006870470000A3
:101AD0005C0100207047704710B504460CB9012026
:101AE00010BD242084F83D002068006820F001002B
:101AF00021680860204600F02BFE0020206484F856
:101B00003D00206384F83E0000BF84F83C0000BF25
:101B100000BFE5E72DE9F84F0446206847692068D3
:101B2000D0F80480002594F83E90C7F3002070B1EF
:101B3000C8F3002058B145F001056FF480702168AA
:101B400048612068006840F4004021680860C7F3DD
:101B5000402040B1C8F3002028B145F002056FF4E1
:101B6000007021684861C7F3802070B3C8F300207B
:101B700058B3CA46B4F82AB094F83D60206B009080
:101B8000BAF1200F0FD1BBF1000F0CD1212E06D0DE
:101B9000292E04D0282E06D10098212803D12046D2
:101BA00004F058F911E06FF480602168486145F055
:101BB0000405B9F1100F02D0B9F1400F05D120682A
:101BC000006840F4007021680860C7F3C02040B18D
:101BD000C8F3002028B145F008056FF400602168C3
:101BE00048612DB1206C28432064204603F0A8FAF8
:101BF000BDE8F88F2DE9F04705464FF00009286849
:101C00004668D5F82CA095F83E7095F83D80102FC9
:101C100001D0402F75D12868D0F818902868446901
:101C200004F0010060B9BAF52A0F02D0BAF12A4FC8
:101C300001D1012000E00020012801D1BDE8F0879A
:101C400004F0010048B1C6F3402030B1284603F04B
:101C500021F9284603F094FEB7E0C4F3C00030B188
:101C6000C6F3402018B1284603F035FDADE0C4F3BB
:101C7000400030B1C6F3402018B1284603F040FDC3
:101C8000A3E0C9F3800040B32868406800F4006016
:101C9000B0F5006FE0D0C4F3C01048B1C6F38020A7
:101CA00030B1C4F3800018B9284603F0A8FC8CE0DA
:101CB000C4F380000028CFD0C6F340200028CBD04A
:101CC000B8F1210F03D1284603F049FC7DE0402FF5
:101CD0007BD1284603F0A3FE77E02868406800F433
:101CE0000060B0F5006F70D0C4F3801050B1C6F33F
:101CF000802038B1C4F3800020B9284603F0ADFB42
:101D000063E00BE0C4F3800000285ED0C6F34020FF
:101D100000285AD0284603F008FB56E0286C10B182
:101D20002868446904E02868D0F818902868446955
:101D3000C4F3400060B1C6F3402048B1286C10B134
:101D40002868D0F818904946284604F04BF83CE043
:101D5000C4F3001030B1C6F3402018B1284604F097
:101D6000CDF832E0B8F1210F02D0B8F1290F16D129
:101D7000C4F3C01048B1C6F3802030B1C4F3800072
:101D800018B9284604F00BF81FE0C4F38000E0B156
:101D9000C6F34020C8B1284603F0F4FF15E0C4F3B1
:101DA000801048B1C6F3802030B1C4F3800018B968
:101DB000284603F0C4FF08E0C4F3800028B1C6F34E
:101DC000402010B1284603F0ADFF00BF36E7000009
:101DD00010B5044608492068884200D010BD20464E
:101DE000FFF77AFE0220FFF721FC204600F006F8FC
:101DF00004F07EFB00BFF1E70054004070B50446DC
:101E00000CB9012070BD94F83D0028B9002084F879
:101E10003C00204600F0C4FC242084F83D002068EB
:101E2000006820F00100216808602068006840F424
:101E30000040216808602068006820F400402168A4
:101E4000086001F081FE05465C496068884206D85A
:101E50005B48854201D2012007E0002005E0594897
:101E6000854201D2012000E00020012800D1C9E70D
:101E70005548B5FBF0F62068406820F03F0030433D
:101E8000216848604D496068884201D8701C07E0AD
:101E90004FF4967070434FF47A71B0FBF1F0401C30
:101EA0002168096A21F03F0108432168086243491B
:101EB0006068884214D8681E61684900B0FBF1F080
:101EC000401CC0F30B00042801D204203DE0681E32
:101ED00061684900B0FBF1F0401CC0F30B0034E036
:101EE000A06838B9681E616801EB4101B0FBF1F0F0
:101EF000401C0AE0681E616801EBC10202EB01119F
:101F0000B0FBF1F0401C40F48040C0F30B0008B976
:101F100001201AE0A06848B9681E616801EB410120
:101F2000B0FBF1F0401CC0F30B000CE0681E6168D0
:101F300001EBC10202EB0111B0FBF1F0401CC0F358
:101F40000B0040F4804040F400402168C9694CF621
:101F5000FF72914308432168C861D4E9070108432F
:101F60002168096821F0C001084321680860D4E9AC
:101F7000031008432168896848F2FF3291430843FF
:101F800021688860D4E9050108432168C96821F007
:101F9000FF0108432168C8602068006840F0010024
:101FA0002168086000202064202084F83D00002083
:101FB000206384F83E0000BF24E70000A0860100F3
:101FC00080841E0000093D0040420F0070477047AA
:101FD0007047000010B504460B492068884200D0C5
:101FE00010BD0A480068401C0849086001200849E3
:101FF00008700848007880F001000649087004F075
:1020000077FA00BFECE70000005400409001002088
:102010008D0100208C010020704700002DE9FE4F4B
:1020200004460F4690469946DDE90CAB0E9E002013
:102030000290FFF749FD054694F83D00202872D133
:1020400019230122CE492046009504F050F810B122
:102050000220BDE8FE8F00BF94F83C00012801D1AA
:102060000220F6E7012084F83C0000BF20680068E9
:1020700000F0010028B92068006840F001002168E4
:1020800008602068006820F4006021680860222051
:1020900084F83D00402084F83E0000202064C4F80D
:1020A00024A0A4F82AB0608D2085B648E0624B4693
:1020B000424639462046CDE9006503F013FD08B1DC
:1020C0000120C6E7208D88B900BF0020019020685C
:1020D0004069019020688069019000BF00BF2068BE
:1020E000006840F40070216808604BE0208D0128F2
:1020F0001AD12068006820F480602168086072B6F8
:1021000000BF00200190206840690190206880692C
:10211000019000BF00BF2068006840F40070216893
:10212000086062B62EE029E1208D022819D12068CE
:10213000006840F400602168086072B600BF0020AB
:10214000019020684069019020688069019000BF7B
:1021500000BF2068006820F480602168086062B6D3
:1021600010E02068006840F480602168086000BFCB
:1021700000200190206840690190206880690190EA
:1021800000BF00BFEBE0208D03287DD8208D012803
:1021900015D12A463146204604F085F808B10120C1
:1021A00057E720680069616A0870606A401C6062D5
:1021B000208D401E2085608D401E6085CFE0208DE3
:1021C00002282CD1334600226F492046009503F0A7
:1021D0008EFF08B101203CE772B62068006840F429
:1021E00000702168086020680069616A0870606A90
:1021F000401C6062208D401E2085608D401E6085E1
:1022000062B620680069616A0870606A401C60629A
:10221000208D401E2085608D401E60859FE03346E6
:10222000002259492046009503F061FF08B10120C2
:102230000FE72068006820F480602168086072B6AB
:1022400020680069616A0870606A401C6062208DC5
:10225000401E2085608D401E60854C480068192115
:10226000B0FBF1F04FF47A71B0FBF1F0C0EBC000BD
:1022700000EB8000029000BF0298401E029002987E
:10228000A8B90020206300E039E0202084F83D0058
:10229000002084F83E00206C40F02000206462B6EC
:1022A00000BF002084F83C0000BF0120D1E6206878
:1022B0004069C0F380000028DED02068006840F448
:1022C00000702168086020680069616A0870606AAF
:1022D000401C6062208D401E2085608D401E608500
:1022E00062B620680069616A0870606A401C6062BA
:1022F000208D401E2085608D401E60852FE02A467F
:102300003146204603F0CFFF08B10120A1E6206846
:102310000069616A0870606A401C6062208D401E1E
:102320002085608D401E608520684069C0F3800074
:10233000A8B1208D032805D12068006820F48060B2
:102340002168086020680069616A0870606A401C42
:102350006062208D401E2085608D401E6085208D2E
:1023600000287FF410AF202084F83D00002084F87E
:102370003E0000BF84F83C0000BF6AE6022068E629
:10238000020010000000FFFF0400010068010020AF
:102390002DE9FE4F04460E4617469846DDE90CAB84
:1023A000FFF792FB81460020029094F83D00202820
:1023B00075D18A4800681921B0FBF1F04FF47A71A9
:1023C000B0FBF1F000EBC00101EB0010029000BF88
:1023D0000298401E0290029870B9002020632020CD
:1023E00084F83D00002084F83E00206C40F020007E
:1023F00020640220BDE8FE8F20688069C0F34000A1
:102400000028E5D100BF94F83C00012801D102204A
:10241000F0E7012084F83C0000BF2068006800F06D
:10242000010028B92068006840F0010021680860B8
:102430002068006820F4006021680860222084F889
:102440003D00402084F83E0000202064C4F824A011
:10245000A4F82AB0608D20856148E0626664A764B4
:10246000C4F84C8000202065208D00287AD0A06B15
:10247000B0B15C48A16B88625B48A16B0863002027
:10248000A16BC862A16B4863238DD4F800C00CF126
:102490001001626AA06BFFF77BF8054611E09AE035
:1024A000202084F83D00002084F83E00206C40F09D
:1024B0008000206400BF002084F83C0000BF0120A1
:1024C00098E7002D4FD1232043463A463146CDE9C7
:1024D0000009204603F006FBB8B1A06BFEF7C6FE6C
:1024E00005460020A16B88622068006820F48060A7
:1024F000216808600020208560852068006820F041
:10250000010021680860012074E7208D012806D1B0
:102510002068006820F480602168086005E0206879
:10252000406840F480502168486000BF002001905E
:1025300020684069019020688069019000BF00BF59
:1025400000BF002084F83C0000BF2068406840F4D1
:102550008070216848602068406840F4006021680D
:10256000486036E010E0202084F83D00002084F828
:102570003E00206C40F01000206400BF002084F872
:102580003C0000BF012035E7232043463A46314650
:10259000CDE90009204603F0A5FA08B1012029E79A
:1025A00000BF002001902068406901902068806988
:1025B000019000BF00BF2068006840F400702168EF
:1025C0000860202084F83D0000BF002084F83C0013
:1025D00000BF00200EE702200CE700006801002089
:1025E0000000FFFFEF4F0008A94F00082DE9FC5F36
:1025F00004460F4690469946DDE90CAB0E9EFFF768
:1026000063FA054694F83D0020287DD11923012264
:102610004D492046009503F06AFD10B10220BDE847
:10262000FC9F00BF94F83C00012801D10220F6E78E
:10263000012084F83C0000BF2068006800F0010021
:1026400028B92068006840F001002168086020680F
:10265000006820F4006021680860212084F83D00B3
:10266000402084F83E0000202064C4F824A0A4F890
:102670002AB0608D20853548E0624B464246394697
:102680002046CDE9006503F0DDFA08B10120C6E778
:1026900031E02A463146204603F072FE50B1206CEC
:1026A000042805D12068006840F4007021680860A3
:1026B0000120B4E7606A007821680861606A401C04
:1026C0006062208D401E2085608D401E60852068E0
:1026D0004069C0F3800070B1208D60B1606A0078FD
:1026E00021680861606A401C6062208D401E208560
:1026F000608D401E6085208D0028CAD12A46314653
:10270000204603F0C1FC00E01CE050B1206C04281E
:1027100005D12068006840F400702168086001203D
:102720007DE72068006840F4007021680860202080
:1027300084F83D00002084F83E0000BF84F83C008F
:1027400000BF6CE702206AE7020010000000FFFFF4
:1027500010B504460F492068884219D10E48C06957
:1027600020F400100C49C86140210C48FEF772FFAC
:1027700080210A48FEF76EFFA06BFEF7CFFD606B6D
:10278000FEF7CCFD1F2000F009F9202000F006F92B
:1027900010BD00000054004000100240000C014039
:1027A00010B586B004460020029003900490059076
:1027B0003949206888426CD100BF3848806940F0B0
:1027C0000800364988610846806900F008000190D9
:1027D00000BF00BFC020029012200390032005908C
:1027E00002A92F48FEF7D0FF00BF2C48C06940F473
:1027F00000102A49C8610846C06900F40010019021
:1028000000BF00BF27482849086000204860002119
:10281000254881608021C1600021016141618161A1
:102820004FF40051C161FEF77FFE08B1FEF75DF97C
:1028300000BF1D48A063446200BF1A4814381B49FA
:102840000860102048600021184881608021C16024
:1028500000210161416181614FF40051C161FEF7C6
:1028600063FE08B1FEF741F900BF1048606344629F
:1028700000BF002211461F2000F0C2F81F2000F008
:10288000AFF800221146202000F0BAF8202000F016
:10289000A7F806B010BD0000005400400010024030
:1028A000000C0140800002405002002094020020F1
:1028B0007047704703480068034909780844014994
:1028C000086070475C0100206401002010B50848D2
:1028D000006840F0100006490860032000F0CEF8C0
:1028E000032000F007F800F02BF8002010BD0000D6
:1028F0000020024070B504460E4800784FF47A710B
:10290000B1FBF0F00C490968B1FBF0F5284601F085
:10291000FDFE08B1012070BD102C07D20022214617
:10292000501E00F06DF80548046001E00120F2E758
:102930000020F0E764010020680100206001002011
:1029400008B500BF1348806940F001001149886153
:102950000846806900F00100009000BF00BF00BF82
:102960000846C06940F08050C8610846C06900F060
:102970008050009000BF00BF052000F07FF800BF2E
:102980000549486820F0E06040F08070486000BF72
:1029900008BD0000001002400000014010B50146D3
:1029A0000846002817DB00F01F0301229A400B4B5A
:1029B000440943F8242000BF00BF00BFBFF34F8F7E
:1029C00000BF00BF00BF00BF00BF00BFBFF36F8FDD
:1029D00000BF00BF00BF00BF10BD000080E100E0ED
:1029E00001460846002809DB00F01F0301229A4037
:1029F00043099B0003F1E023C3F8002100BF7047A7
:102A00002DE9F05F80460D461646002707F078FA5C
:102A1000074639462A46334601F00700C0F1070A47
:102A2000BAF1040F02D94FF0040A01E0C0F1070A1D
:102A3000D14600F1040ABAF1070F02D24FF0000AA2
:102A400001E0A0F1030AD4464FF0010A0AFA09FA9C
:102A5000AAF1010A0AEA020A0AFA0CFA4FF0010B7B
:102A60000BFA0CFBABF1010B0BEA030B4AEA0B046C
:102A70002146404607F04CFABDE8F09F00BF00F049
:102A80000702064B19684FF6FF031940044B0B432E
:102A900043EA0221014B196000BF70470CED00E0D2
:102AA0000000FA0570B505460C4604F08000802849
:102AB00008D104F0070000EB800605F1100000EBE0
:102AC000C60105E004EB840605F5A87000EBC6011D
:102AD0001AB900200873CB8004E0012008730B8131
:102AE000180C4881002070BD704770B504460D4633
:102AF00005EB850304F1100101EBC3014A69294686
:102B0000D4F8D40205F0B0FA70BD70B504460D4695
:102B100005EB850304F5A87101EBC3014A69294659
:102B2000D4F8D40205F020FB70BD70B504460E4603
:102B300006F0800080280AD106F0070000EB800133
:102B400004F1100000EBC1050120687009E006F0F7
:102B5000070000EB800104F5A87000EBC105002020
:102B6000687006F00700287000BF94F890020128F2
:102B700001D1022070BD012084F8900200BF2946D7
:102B8000206806F0A3F900BF002084F8900200BF7F
:102B900000BFEFE770B504460E4606F00F0021793E
:102BA000884201D9012070BD06F0800080280AD13A
:102BB00006F0070000EB800104F1100000EBC105F6
:102BC0000120687009E006F0070000EB800104F5C1
:102BD000A87000EBC105002068700020A87006F006
:102BE0000700287000BF94F89002012801D102204C
:102BF000D9E7012084F8900200BF2946206806F03A
:102C0000C1FA00BF002084F8900200BF00BFCAE7ED
:102C10002DE9F04105460C46174607F48040002890
:102C200050D02868B0F85010207801EBC000801C0C
:102C3000296801F5806131F81000C0F30906A06928
:102C4000B04203D3A069801BA06101E00020A06115
:102C5000A069A8B900BF22785200296831F8121083
:102C60004BF68F7201EA020080F4005040F40041FC
:102C700041F0800123785B002A6822F8131000BF1E
:102C800007F04000A8B100BF00BF227852002968B9
:102C900031F8121048F68F7201EA020040F4004148
:102CA00041F0C00123785B002A6822F8131000BFAE
:102CB00000BF002E55D0228961693346286807F08D
:102CC000B9F84EE02868B0F85010207801EBC00049
:102CD000801D296801F5806131F81000C0F30906F4
:102CE000A069B04203D3A069801BA06101E000206D
:102CF000A061A069A8B900BF22785200296831F804
:102D000012104BF68F7201EA020080F4005040F47A
:102D1000004141F0800123785B002A6822F81310FB
:102D200000BF07F04000A8B900BF00BF22785200E2
:102D3000296831F8121048F68F7201EA020040F457
:102D4000004141F0C00123785B002A6822F813108B
:102D500000BF00BF2EB1628961693346286807F061
:102D600069F83046BDE8F0812DE9F04705460C468C
:102D7000904608F0400000287ED02868B0F8501037
:102D8000207801EBC000801C296801F5806131F8D2
:102D90001000C0F30907A069B84203D9A069C01B9D
:102DA000A06101E00020A061A06900287ED100BFE1
:102DB0006078C0B900BF29682A68B2F85020114471
:102DC0002278022303EBC20201F5806303EB420089
:102DD00000BF0288C2F309020280028842F4004266
:102DE000028000BF13E06078012810D100BF28687E
:102DF0002A68B2F8502010442278022303EBC20262
:102E000000F5806303EB420100220A8000BF00BF8F
:102E100000BF29686078F8B900BF2B68D5F800C0FA
:102E2000BCF850C0634494F800C04FF0060909EBA9
:102E3000CC0C03F5806909EB4C0000BFB0F800C072
:102E4000CCF3090CA0F800C0B0F800C04CF4004C62
:102E5000A0F800C000BF12E0607801280FD12868F8
:102E6000B0F8500001442078062303EBC00001F5C0
:102E7000806303EB400200E0B7E00020108000BF59
:102E800021782846FFF731FE08F48040002816D04C
:102E900000BF00BF22785200296831F8121048F6AE
:102EA0008F7201EA020040F4004100E008E041F4C2
:102EB000814123785B002A6822F8131000BFD7E114
:102EC00008F48040A8B100BF00BF227852002968F2
:102ED00031F8121048F68F7201EA020040F4004106
:102EE00041F4814123785B002A6822F8131000BF67
:102EF00000BF94F824000128E1D160693844606182
:102F0000E0693844E0612169206A884204D3266977
:102F1000206A801B20620BE0206A20B93E46002018
:102F200084F8240004E0002084F82400266A20624B
:102F300000BF6078E8BB00BF2A682968B1F850106C
:102F40000A442178022303EBC10102F5806303EBFD
:102F50004101084600BF0388C3F3090303803E2EE6
:102F600010D900BF710906F01F0303B9491E038879
:102F70004FF4004C4CEA812C1FFA8CFC43EA0C0302
:102F8000038014E026B9038843F4004303800EE075
:102F900000BF710806F0010303B1491C03884FF616
:102FA000FF7C0CEA812C43EA0C03038000BF00BFC6
:102FB00013E0FFE7607801280FD100BF28682A6876
:102FC000B2F8502010442278022303EBC20200F52D
:102FD000806303EB42010E8000BF00BFB3B22289C1
:102FE0006169286806F055FF42E12868B0F8501082
:102FF000207801EBC000801D296801F5806131F85F
:103000001000C0F30907A069B84203D3A069C01B30
:10301000A06101E00020A061A06900287ED100BF6E
:103020006078C0B900BF29682A68B2F850201144FE
:103030002278022303EBC20201F5806303EB420016
:1030400000BF0288C2F309020280028842F40042F3
:10305000028000BF13E06078012810D100BF28680B
:103060002A68B2F8502010442278022303EBC202EF
:1030700000F5806303EB420100220A8000BF00BF1D
:1030800000BF29686078F8B900BF2B68D5F800C088
:10309000BCF850C0634494F800C04FF0060909EB37
:1030A000CC0C03F5806909EB4C0000BFB0F800C000
:1030B000CCF3090CA0F800C0B0F800C04CF4004CF0
:1030C000A0F800C000BF10E0607801280DD128688A
:1030D000B0F8500001442078062303EBC00001F54E
:1030E000806303EB40020020108000BF2178284657
:1030F000FFF7FBFC08F48040002816D100BF00BF9A
:1031000022785200296831F8121048F68F7201EACD
:10311000020040F4004141F4814100E006E02378E0
:103120005B002A6822F8131000BFA1E008F4804079
:10313000A8B900BF00BF22785200296831F81210E8
:1031400048F68F7201EA020040F4004141F48141E7
:1031500023785B002A6822F8131000BF00BF94F8A0
:10316000240001287ED1606938446061E0693844F8
:10317000E0612169206A884204D32669206A801BA5
:1031800020620BE0206A20B93E46002084F824002B
:1031900004E0266A0020206284F8240000BF2A6828
:1031A000607870BB00BFD5F800C02968B1F8501036
:1031B0008C4421784FF0060909EBC1010CF58069B8
:1031C00009EB4101084600BFB0F80090C9F30909B6
:1031D000A0F800903E2E15D900BF710906F01F0916
:1031E000B9F1000F00D1491EB0F800904FF4004A29
:1031F0004AEA812A1FFA8AFA49EA0A09A0F80090E5
:103200001BE01CE036B9B0F8009049F40049A0F882
:10321000009012E000BF710806F00109B9F1000F3B
:1032200000D0491CB0F800904FF6FF7A0AEA812AD4
:1032300049EA0A09A0F8009000BF00BF0FE06078DB
:1032400001280CD12868B0F85000024420780621EB
:1032500001EBC00002F5806101EB40031E8000BF5E
:10326000B3B200E004E062896169286806F011FEEB
:1032700000BF22785200296831F8121048F6BF7258
:1032800001EA020080F0100080F0200040F40041CC
:1032900041F0800223785B00296821F8132000BFE9
:1032A0000020BDE8F087024601F0070000EB800334
:1032B00002F5A87000EBC300C06970472DE9F04724
:1032C00005460E4690461F464FF0000906F0800066
:1032D00080280AD106F0070000EB800105F11000FC
:1032E00000EBC1040120607009E006F0070000EB6C
:1032F000800105F5A87000EBC1040020607006F0A5
:1033000007002070C4F81080E770022F01D1002060
:10331000207100BF95F89002012802D10220BDE87B
:10332000F087012085F8900200BF2146286805F04B
:1033300071FB00BF002085F8900200BF4846EEE711
:103340002DE9F04105460E461746984606F007005F
:1033500000EB800105F5A87000EBC1046761C4F8BB
:1033600018800020E061607006F0070020702146A0
:10337000286805F0A2FF0020BDE8F08170B5044682
:103380000D4605F007002179884201D9012070BD62
:1033900005F0800080280AD105F0070000EB8001CD
:1033A00004F1100000EBC1060120707007E005EB8E
:1033B000850104F5A87000EBC106002070700120A3
:1033C000B07005F00700307000BF94F8900201283B
:1033D00001D10220DBE7012084F8900200BF3146D2
:1033E000206805F03CFF05F0070020B904F52671C0
:1033F000206805F0C4FE00BF002084F8900200BFE2
:1034000000BFC4E72DE9F04105460E4690461F4631
:1034100006F0070000EB800105F1100000EBC1048D
:10342000C4F81480A761012084F8240027620020DA
:10343000E0610120607006F00700207021462868D6
:1034400005F03BFF0020BDE8F0817FB50446206811
:1034500006F0ECFC064606F40040B0F5004F03D140
:10346000204603F0B0FB7FBD06F48060B0F5806FAE
:1034700010D12068B0F844004FF6FF3108402168B1
:10348000A1F84400204600F087F90021204600F012
:10349000A3F9E8E706F48040B0F5804F09D1206831
:1034A000B0F844004BF6FF7108402168A1F84400D1
:1034B000D9E706F40050B0F5005F09D12068B0F8F4
:1034C00044004DF6FF7108402168A1F84400CAE7A6
:1034D00006F48050B0F5805F1ED12068B0F840003F
:1034E0004FF6FB7108402168A1F840002068B0F851
:1034F00040004FF6F77108402168A1F840002046CF
:1035000000F05CF92068B0F844004EF6FF71084006
:103510002168A1F84400A6E706F40060B0F5006F4A
:1035200056D1002507E06900206830F811002DF819
:103530001500681CC5B2082DF5D32068B0F840000E
:1035400040F001002168A1F840002068B0F8400078
:103550004FF6FE7108402168A1F8400000BF2068C6
:10356000B0F8440000F480600028F8D02068B0F87B
:1035700044004FF6FF3108402168A1F844000025BF
:1035800007E03DF815006A00216821F81200681C68
:10359000C5B2082DF5D32068B0F8400040F008000F
:1035A0002168A1F840002068B0F844004FF2FF7194
:1035B00008402168A1F844002068B0F8400040F0BD
:1035C00004002168A1F84000204600F047F94AE7CE
:1035D00006F40070B0F5007F0CD12068B0F844000C
:1035E0004FF6FF5108402168A1F84400204600F042
:1035F000ECF838E706F48070B0F5807F09D12068D8
:10360000B0F844004FF6FF6108402168A1F844007B
:1036100029E700BF27E770B504460CB9012070BD4B
:1036200094F8910228B9002084F89002204600F016
:1036300091F8032084F8910200216171206805F05F
:1036400094FD94E80F0005F03DFC20B1022084F8C1
:1036500091020120E3E70021206806F010FC20B170
:10366000022084F891020120D9E700252AE00121F7
:1036700005EB850204F1100000EBC200417005EB80
:10368000850104F1100000F83150002105EB85029E
:1036900000EBC200C17005EB850204F1100000EBE5
:1036A000C200016105EB850204F1100000EBC200CD
:1036B000416105EB850204F1100000EBC20081615D
:1036C000681CC5B22079A842D1DC00252AE000217F
:1036D00005EB850204F5A87000EBC200417005EB14
:1036E000850104F5A87000F83150002105EB850232
:1036F00000EBC200C17005EB850204F5A87000EB79
:10370000C200016105EB850204F5A87000EBC20060
:10371000416105EB850204F5A87000EBC2008161F0
:10372000681CC5B22079A842D1DC94E80F0005F0EE
:1037300011FD20B1022084F8910201206FE70020E2
:103740006073012084F89102206805F000FD0020DC
:1037500065E7000038B504460D492068884215D158
:1037600000BF0C48C06940F400000A49C86108461F
:10377000C06900F40000009000BF00BF00221146A5
:103780001420FFF73DF91420FFF72AF938BD000097
:10379000005C00400010024070B504460125A0798D
:1037A000022801D0FDF7A1F92946D4F8D40204F08B
:1037B00007FED4F8D40204F0B9FD70BD10B504467C
:1037C000D4F8D40204F0E0FD10BD10B50446D4F8DE
:1037D000D40204F0E4FD10BD70B504460D4600BFF0
:1037E00094F89002012801D1022070BD012084F8D4
:1037F000900200BF65732946206806F043FB00BFB6
:10380000002084F8900200BF00BFEEE710B5044628
:1038100004F52671D4F8D40204F0E9FD10BD10B50A
:10382000044600BF94F89002012801D1022010BD87
:10383000012084F8900200BF206806F066FA01219A
:103840002046FFF751F9206805F07EFC00BF0020FC
:1038500084F8900200BF00BFE9E7000010B50446FD
:10386000D4F8D40204F01CFEA07A28B10348006802
:1038700040F006000149086010BD000010ED00E0B6
:10388000F8B5044600260025207800F00100002845
:103890006BD000274348C06900F0805070B900BF6A
:1038A0004048C06940F080503E49C8610846C06940
:1038B00000F08050009000BF00BF01273A48006828
:1038C00000F48070B0B93848006840F48070364920
:1038D0000860FEF7F9F8064606E0FEF7F5F8801BEB
:1038E000642801D90320F8BD2F48006800F48070D7
:1038F0000028F2D02B48006A00F440752DB3A08850
:1039000000F44070A84220D02648006A20F4407598
:10391000012026490860002008602248056205F061
:10392000010090B1FEF7D0F8064608E0FEF7CCF8AB
:10393000801B41F28831884201D90320D3E719481E
:10394000006A00F002000028F0D01648006A20F457
:1039500040706168084313490862012F04D108468A
:10396000C06920F08050C86100BF207800F00200DC
:10397000022807D10B48406820F44040A168084362
:1039800008494860207800F01000102807D1054849
:10399000406820F48000E168084302494860002044
:1039A000A1E70000001002400070004040044242C5
:1039B00070B504460D460CB9012070BD5A48006828
:1039C00000F00700A8420ED25748006820F0070018
:1039D0002843554908600846006800F00700A842DF
:1039E00001D00120E9E7207800F0020002281DD173
:1039F000207800F00400042805D14C48406840F4C9
:103A0000E0604A494860207800F00800082805D1A5
:103A10004648406840F46050444948604348406824
:103A200020F0F000A168084340494860207800F089
:103A3000010078B36068012806D13C48006800F4B2
:103A4000003090B90120B8E76068022806D13748F5
:103A5000006800F0007040B90120AEE7334800680C
:103A600000F0020008B90120A7E73048406820F0C4
:103A70000300616808432D494860FEF725F80646B3
:103A800009E0FEF721F8801B41F28831884202D913
:103A9000032092E707E02548406800F00C006168C9
:103AA000B0EB810FEDD12048006800F00700A8427C
:103AB0000ED91D48006820F0070028431A49086005
:103AC0000846006800F00700A84201D0012074E712
:103AD000207800F00400042807D11448406820F43E
:103AE000E060E168084311494860207800F0080070
:103AF000082808D10D48406820F46050216940EA48
:103B0000C1000A49486000F02FF808494968C1F32C
:103B10000311074A515CC84006490860064800681E
:103B2000FEF7E8FE002048E70020024000100240B7
:103B30000CB90008680100206001002001480068FD
:103B4000704700006801002000B5FFF7F7FF044947
:103B50004968C1F30221034A515CC84000BD00001E
:103B6000001002401CB9000870B50021002200249A
:103B700000230020134D696801F00C05F5B1042DF8
:103B800002D0082D19D101E00F4819E00F4DC1F303
:103B90008346AB5D01F4803555B10A4D6D68C5F3C0
:103BA00040450B4E725D084D5D43B5FBF2F402E0FB
:103BB000084D03FB05F4204602E000BF024800BFA9
:103BC00000BF70BD0010024000127A00FAB8000871
:103BD0000AB9000800093D00F8B504460CB90120F7
:103BE000F8BD207800F00100002878D0F84840683F
:103BF00000F00C0004280CD0F548406800F00C00E0
:103C0000082811D1F248406800F48030B0F5803FB8
:103C10000AD1EF48006800F4003000285FD06068E7
:103C200000285CD10120DBE700BF6068B0F5803F71
:103C300006D1E748006840F48030E549086028E094
:103C4000606858B9E248006820F48030E0490860B4
:103C50000846006820F4802008601AE06068B0F52B
:103C6000A02F0BD1DA48006840F48020D8490860C2
:103C70000846006840F4803008600AE0D4480068D4
:103C800020F48030D24908600846006820F4802083
:103C9000086000BF606888B1FDF716FF054606E0C2
:103CA000FDF712FF401B642801D9032098E7C8489C
:103CB000006800F400300028F2D010E0FDF704FFA7
:103CC000054606E0FDF700FF401B642801D90320EC
:103CD00086E7BF48006800F400300028F2D1207861
:103CE00000F00200022857D1B948406800F00C00EB
:103CF00050B1B748406800F00C00082818D1B4480B
:103D0000406800F4803098B9B148006800F00200C3
:103D100020B12069012801D0012061E7AC4800688A
:103D200020F0F800616940EAC100A949086033E069
:103D30002069E8B10120A7490860FDF7C5FE0546E6
:103D400006E0FDF7C1FE401B022801D9032047E72A
:103D50009F48006800F002000028F2D09C480068EC
:103D600020F0F800616940EAC1009949086013E059
:103D7000002098490860FDF7A7FE054606E0FDF71C
:103D8000A3FE401B022801D9032029E790480068C0
:103D900000F002000028F2D1207800F00800082886
:103DA0002DD1A069B8B101208B490860FDF78CFEC8
:103DB000054606E0FDF788FE401B022801D90320D6
:103DC0000EE78348406A00F002000028F2D001208C
:103DD00003F00AFA13E000207F490860FDF774FE43
:103DE000054606E0FDF770FE401B022801D90320BE
:103DF000F6E67748406A00F002000028F2D1207809
:103E000000F00400042873D100277148C06900F055
:103E1000805070B900BF6E48C06940F080506C4956
:103E2000C8610846C06900F08050009000BF00BF24
:103E300001276A48006800F48070B0B967480068DC
:103E400040F4807065490860FDF73EFE054606E0D7
:103E5000FDF73AFE401B642801D90320C0E65F4805
:103E6000006800F480700028F2D000BFE0680128EC
:103E700006D15748006A40F001005549086227E022
:103E8000E06858B95248006A20F0010050490862C1
:103E90000846006A20F00400086219E0E06805287E
:103EA0000BD14B48006A40F00400494908620846BB
:103EB000006A40F0010008620AE04548006A20F00C
:103EC0000100434908620846006A20F004000862C5
:103ED00000BFE068A0B1FDF7F7FD054609E0FDF77A
:103EE000F3FD401B41F28831884202D9032077E676
:103EF00022E03748006A00F002000028EFD012E00C
:103F0000FDF7E2FD054608E0FDF7DEFD401B41F24E
:103F10008831884201D9032062E62D48006A00F00A
:103F200002000028F0D1012F05D12948C06920F0F6
:103F300080502749C86100BFE069C8B32448406881
:103F400000F00C00082860D0E069022848D1002069
:103F500020490866FDF7B8FD054606E0FDF7B4FD0B
:103F6000401B022801D903203AE61948006800F0F6
:103F700000700028F2D1206AB0F5803F07D11448C4
:103F8000406820F40030A168084311494860D4E932
:103F9000080108430E49496821F4741108430C498B
:103FA000486001200B490866FDF78EFD054607E0D5
:103FB0003DE0FDF789FD401B022801D903200FE6F3
:103FC0000348006800F000700028F2D02FE00000E5
:103FD0000010024000004242800442420070004053
:103FE000002014490866FDF76FFD054606E0FDF761
:103FF0006BFD401B022801D90320F1E50E48006843
:1040000000F000700028F2D111E0E069012800D131
:10401000E6E50948466806F48031206A814204D109
:1040200006F47011606A814201D00120D8E50020B9
:10403000D6E50000000042420010024010B50446E0
:104040000CB9012010BD606A38B96068B0F5827F94
:1040500000D105E00021E16102E000212161616100
:104060000021A16294F8510028B9002084F8500082
:10407000204600F043F8022084F8510020680068D0
:1040800020F0400021680860A08800F48270218937
:1040900001F404410843A18901F400610843217C33
:1040A00001F002010843217D01F001010843218B49
:1040B00001F400710843217F01F0380108432021F9
:1040C000095D01F080010843218D01F4005108438E
:1040D000216808600421A06901EA10402168486055
:1040E0002068C06920F400602168C8610020606514
:1040F000012084F851000020A4E7000010B586B02C
:104100000446002002900390049005901A4920680C
:1041100088422FD100BF1948C06940F48040174938
:10412000C8610846C06900F48040019000BF00BF2C
:1041300000BF0846806940F0080088610846806931
:1041400000F00800019000BF00BF4FF42040029033
:10415000022003900320059002A90948FDF714FBF3
:104160004FF48040029000200390049002A904487C
:10417000FDF70AFB06B010BD0038004000100240F9
:10418000000C01402DE9F8430446884616461D46BA
:1041900094F85100012802D00220BDE8F88360683D
:1041A000B0F5827F0CD1A06850B9042084F851008A
:1041B0003346424641462046009500F083F9ECE73D
:1041C000FDF782FC0746B8F1000F00D00EB90120C0
:1041D000E3E700BF94F85000012801D10220DCE79A
:1041E000012084F8500000BF042084F85100002012
:1041F0006065C4F83880A687E6872063A086E086DD
:1042000020646064A068B0F5004F0BD1206800689E
:1042100020F04000216808602068006820F4804099
:10422000216808602068006800F04000402805D040
:104230002068006840F0400021680860E06830BBFA
:1042400021E02068806800F0010050B12068007B08
:10425000A16B0870A06B401CA063E08F401EE0873C
:1042600011E0FDF731FCC01BA84201D3681C00B966
:104270004DB9012084F8510000BF002084F850009F
:1042800000BF032089E7E08F0028DAD125E021E094
:104290002068806800F0010050B12068C068A16B00
:1042A0000880A06B801CA063E08F401EE08711E0B7
:1042B000FDF70AFCC01BA84201D3681C00B94DB928
:1042C000012084F8510000BF002084F8500000BF96
:1042D000032062E7E08F0028DAD13A4629462046DB
:1042E00002F0C4FF08B120206065012084F851006D
:1042F00000BF002084F8500000BF606D08B10120AD
:104300004BE7002049E72DE9F84304460F461646DF
:104310001D46FDF7D9FB8046B14694F851000128AF
:1043200002D00220BDE8F88307B10EB90120F9E7F9
:1043300000BF94F85000012801D10220F2E70120CB
:1043400084F8500000BF032084F85100002060650D
:104350002763A686E686A063A087E0876064206462
:10436000A068B0F5004F0BD12068006820F0400035
:10437000216808602068006840F480402168086077
:104380002068006800F04000402805D020680068E0
:1043900040F0400021680860E068B0F5006F37D158
:1043A000606810B1B9F1010F09D1206B0088216854
:1043B000C860206B801C2063E08E401EE08623E0F6
:1043C0002068806800F0020002280AD1206B008873
:1043D0002168C860206B801C2063E08E401EE08650
:1043E00012E0FDF771FBA0EB0800A84201D3681CA6
:1043F00000B94DB9012084F8510000BF002084F8B5
:10440000500000BF03208DE7E08E0028D8D136E0B1
:10441000606810B1B9F1010F09D1206B00782168F3
:104420000873206B401C2063E08E401EE08623E072
:104430002068806800F0020002280AD1206B007812
:1044400021680873206B401C2063E08E401EE086CC
:1044500012E0FDF739FBA0EB0800A84201D3681C6D
:1044600000B94DB9012084F8510000BF002084F844
:10447000500000BF032055E7E08E0028D8D1424607
:104480002946204602F02EFF08B120206065A06872
:1044900050B900BF002000902068C06800902068DC
:1044A0008068009000BF00BF012084F8510000BF69
:1044B000002084F8500000BF606D08B1012031E792
:1044C00000202FE72DE9FE4F04460F4690461D467B
:1044D0000C9E01200190FDF7F7FA814694F851B047
:1044E00060680290AA46BBF1010F0BD00298B0F5AC
:1044F000827F04D1A06810B9BBF1040F02D0022062
:10450000BDE8FE8F1FB1B8F1000F00D00DB901203A
:10451000F6E700BF94F85000012801D10220EFE730
:10452000012084F8500000BF94F85100042802D004
:10453000052084F8510000206065C4F83880E587C4
:10454000A5872763E586A5862064606420680068E7
:1045500000F04000402805D02068006840F040008E
:1045600021680860E068B0F5006F52D1606810B152
:10457000BAF1010F09D1206B00882168C860206B57
:10458000801C2063E08E401EE0863BE0206880684F
:1045900000F00200022810D1E08E70B101980128CD
:1045A0000BD1206B00882168C860206B801C2063C1
:1045B000E08E401EE086002001902068806800F0B8
:1045C000010068B1E08F58B12068C068A16B088015
:1045D000A06B801CA063E08F401EE087012001904B
:1045E000FDF772FAA0EB0900B0420BD3701C48B182
:1045F000012084F8510000BF002084F8500000BF63
:1046000003207DE7E08E0028C0D1E08F0028BDD1D7
:1046100052E0606810B1BAF1010F09D1206B007847
:1046200021680873206B401C2063E08E401EE086EA
:104630003CE02068806800F00200022810D1E08E83
:1046400070B1019801280BD1206B007821680873A4
:10465000206B401C2063E08E401EE086002001900D
:104660002068806800F0010068B1E08F58B12068D0
:10467000C068A16B0870A06B401CA063E08F401E57
:10468000E08701200190FDF71FFAA0EB0900B0427E
:1046900001D3701C00B94EB9012084F8510000BF4D
:1046A000002084F8500000BF032029E7E08E002896
:1046B000BFD1E08F0028BCD14A463146204602F0E7
:1046C00011FE40B12020606500BF002084F850003A
:1046D00000BF012014E7A06850B900BF002000907F
:1046E0002068C068009020688068009000BF00BF0C
:1046F000012084F8510000BF002084F8500000BF62
:10470000606D08B10120FBE60020F9E670B50446B3
:104710002546681EB0F1807F01D301200FE0681E9E
:104720004FF0E02148610F214FF0FF3005F0F0FB22
:1047300000204FF0E021886107200861002070BD53
:104740007047704730B502460B4600BF92F83C00F8
:10475000012801D1022030BD012082F83C0000BFB9
:10476000022082F83D00106844681068816824F0D7
:1047700070041868044310684460104D1068A84223
:104780000BD01068B0F1804F07D00D4D1068A842D3
:1047900003D00C4D1068A84205D121F08001586863
:1047A000014310688160012082F83D0000BF0020B5
:1047B00082F83C0000BF00BFCDE70000002C0140A4
:1047C000000400400008004010B504460CB9012068
:1047D00010BD94F83D0028B9002084F83C00204624
:1047E00000F026F8022084F83D00211D206802F028
:1047F00057FE012084F8460000BF84F83E000121E6
:104800003F200155402001554120015500BF00BF08
:10481000012084F8420043200155442001554520E1
:10482000015500BF012084F83D000020D0E70000C2
:1048300038B5044616492068884216D100BF15488D
:10484000806940F40060134988610846806900F47B
:104850000060009000BF00BF002211461920FEF743
:10486000CFF81920FEF7BCF811E02068B0F1804FB6
:104870000DD100BF0748C06940F001000549C8617B
:104880000846C06900F00100009000BF00BF38BDBD
:10489000002C014000100240014691F83D00012823
:1048A00001D001207047022081F83D000868C068EF
:1048B00040F001000B68D860124B086898420BD09A
:1048C0000868B0F1804F07D00F4B0868984203D0BA
:1048D0000E4B086898420CD10868806800F0070207
:1048E000062A0CD00868006840F001000B681860C8
:1048F00005E00868006840F001000B6818600020BF
:10490000D0E70000002C01400004004000080040F7
:104910002DE9F04104460D46002700BF94F83C0005
:10492000012802D10220BDE8F081012084F83C007A
:1049300000BF022084F83D002068866826F07706D4
:1049400026F47F46206886602868502833D00CDC27
:10495000202850D004DC00284BD0102851D149E049
:10496000302849D040284CD139E060282DD070281B
:1049700007D0B0F5805F03D0B0F5005F41D10DE006
:1049800041E0D5E902136A68206802F0DCFD206886
:10499000866846F077062068866034E0D5E9021321
:1049A0006A68206802F0CFFD2068806840F480408B
:1049B0002168886027E0EA686968206802F094FE50
:1049C0005021206802F0CAFD1DE0EA68696820688D
:1049D00002F09DFE6021206802F0C0FD13E0EA684D
:1049E0006968206802F080FE4021206802F0B6FD70
:1049F00009E000BF00BF00BF2968206802F0AEFDDB
:104A000001E0012700BF00BF012084F83D0000BF86
:104A1000002084F83C0000BF384684E7704770B53A
:104A200004462068C5682068066906F0020002286E
:104A300019D105F00200022815D1401F2168086134
:104A4000012020772068806900F0030018B120461B
:104A5000FFF7E4FF05E0204600F0C2F8204600F032
:104A600076F90020207706F00400042819D105F01B
:104A70000400042815D1C043216808610220207772
:104A80002068806900F4407018B12046FFF7C6FF27
:104A900005E0204600F0A4F8204600F058F9002078
:104AA000207706F00800082819D105F0080008282A
:104AB00015D1C04321680861042020772068C069AF
:104AC00000F0030018B12046FFF7A8FF05E02046DC
:104AD00000F086F8204600F03AF90020207706F032
:104AE0001000102819D105F01000102815D1C0436E
:104AF00021680861082020772068C06900F44070B0
:104B000018B12046FFF78AFF05E0204600F068F85C
:104B1000204600F01CF90020207706F0010048B183
:104B200005F0010030B16FF00100216808612046F6
:104B300000F078F906F08000802809D105F08000A7
:104B4000802805D1C043216808612046FFF7F8FDA1
:104B500006F04000402809D105F04000402805D16A
:104B6000C04321680861204600F080F906F020006B
:104B7000202809D105F02000202805D1C043216854
:104B800008612046FFF7DDFD70BD000010B586B05E
:104B90000446002002900390049005902068B0F134
:104BA000804F17D100BF0C48806940F004000A49CB
:104BB00088610846806900F00400019000BF00BFD2
:104BC0000F200290022003900320059002A90348C1
:104BD000FCF7DAFD06B010BD0010024000080140ED
:104BE00070472DE9F04104460D461646002700BFE8
:104BF00094F83C00012802D10220BDE8F081012098
:104C000084F83C0000BF36B1042E1BD0082E31D0F2
:104C10000C2E5ED145E02946206802F0A9FC2068F0
:104C2000806940F00800216888612068806920F070
:104C30000400216888612068806929690843216827
:104C4000886148E02946206802F0C2FC206880693B
:104C500040F40060216888612068806920F48060E9
:104C60002168886120688069296940EA01202168FB
:104C7000886130E02946206802F0DEFC2068C069C7
:104C800040F008002168C8612068C06920F0040075
:104C90002168C8612068C069296908432168C86122
:104CA00019E02946206802F0FBFC2068C06940F446
:104CB00000602168C8612068C06920F480602168B4
:104CC000C8612068C069296940EA01202168C8617B
:104CD00001E0012700BF00BF00BF002084F83C00B6
:104CE00000BF384689E710B504460CB9012010BD55
:104CF00094F83D0028B9002084F83C00204600F0DC
:104D000025F8022084F83D00211D206802F0C8FB30
:104D1000012084F8460000BF84F83E0001213F20B6
:104D20000155402001554120015500BF00BF012021
:104D300084F8420043200155442001554520015587
:104D400000BF012084F83D000020D0E77047704785
:104D500070B504460D4615B994F83E000BE0042DDD
:104D600002D13F20005D06E0082D02D14020005D09
:104D700001E04120005D012801D0012070BD1DB976
:104D8000022084F83E000EE0042D03D102213F20D2
:104D9000015508E0082D03D102214020015502E011
:104DA00002214120015501222946206802F0BAFB68
:104DB00019492068884201D1012000E0002028B173
:104DC0002068406C40F40040216848641249206823
:104DD00088420BD02068B0F1804F07D00F4920687F
:104DE000884203D00E49206888420CD12068806830
:104DF00000F00706062E0CD02068006840F0010085
:104E00002168086005E02068006840F00100216822
:104E100008600020B2E70000002C014000040040C0
:104E2000000800400D4A0168914216D101210C4A48
:104E300011700C49096841F080510A4A11600A4911
:104E40000968491C084A1160114609680A2904D3F7
:104E5000002111600121024A51707047002C01406D
:104E60006D01002004ED00E078010020704700BFD4
:104E7000FEE7000010B50248FCF74CFE10BD000034
:104E8000FC01002010B50248FCF7B4FE10BD000084
:104E9000FC010020C16AB1F52A0F02D10121C162D3
:104EA00005E0C16AB1F12A4F01D10821C162704702
:104EB000F8B50546002000906C6A94F83D603948CA
:104EC00000681921B0FBF1F04FF47A71B0FBF1F0FA
:104ED000C0EBC00000EB8000009000BF009820B93C
:104EE000206C40F02000206409E00098401E0090F3
:104EF0002068006800F40070B0F5007FEED000BFBD
:104F0000606B10B10020616B8862A06B10B1002053
:104F1000A16B88622068006820F4806021680860C6
:104F200000206085606B10B10020616B4863A06B4E
:104F300010B10020A16B48632068006820F00100D8
:104F40002168086094F83D0060280AD1202084F888
:104F50003D00002084F83E0020642046FCF7BAFDA6
:104F60001EE006F02800282811D12068006840F0D3
:104F70000100216808602068006840F480602168B2
:104F8000086000202063282084F83D0005E02020F0
:104F900084F83D00002084F83E002046FCF718FF0E
:104FA000F8BD00006801002070B505466C6A606BB2
:104FB00010B10020616B8862A06B10B10020A16B62
:104FC00088622068006820F4806021680860002002
:104FD0006085202084F83D00002084F83E00206C8D
:104FE00040F0100020642046FCF7F2FE70BD2DE971
:104FF000F04107467C6A94F83D6094F83E80E56A8B
:105000002068406820F4407021684860606B10B1EF
:105010000020616B8862A06B10B10020A16B8862D8
:1050200006F02100212806D006F02200222826D1F1
:10503000B8F1200F23D12068406820F40060216877
:10504000486000206085292E08D121202063282077
:1050500084F83D002046FDF72CFC09E02A2E07D1FC
:1050600022202063282084F83D002046FDF720FC04
:105070002068406840F440702168486054E094F82B
:105080003E00002850D0608D012805D120680068BE
:1050900020F48060216808602068406820F4407037
:1050A0002168486015F5803F06D0082D04D0B5F181
:1050B0002A4F01D0202D05D12068006840F40070EF
:1050C000216808602068406820F4805021684860AA
:1050D0002068406820F400602168486000206085F6
:1050E000206C18B12046FCF773FE1DE0202084F8E8
:1050F0003D0094F83E00402807D1002084F83E008F
:1051000020632046FCF766FF0EE0002084F83E0096
:10511000082D01D0202D02D10020206301E01220B3
:1051200020632046FCF753FFBDE8F0810168496920
:10513000C1F3C01111B10021026811617047000074
:105140002DE9F041044694F83D6094F83E70102F2C
:1051500001D0402F07D1222E05D12068006820F40D
:1051600000602168086006F02800282805D100208A
:105170002063282084F83D0010E02068406800F497
:105180000060B0F5006F07D0602E05D0202084F8B5
:105190003D00002084F83E00002020632068406825
:1051A00000F40060B0F5006F40D12068406820F442
:1051B000006021684860606B90F82100012814D0DD
:1051C0004848616B4863606BFCF750F800285BD07F
:1051D0002068006820F0010021680860202084F821
:1051E0003D00606B416B88474EE03E48A16B4863D1
:1051F000A06BFCF73BF8002846D020684069C0F35C
:10520000801030B120680069616A0870606A401CD3
:1052100060622068006820F001002168086020209A
:1052200084F83D00A06B416B88472DE094F83D0069
:1052300060281AD1202084F83D00002020642068D6
:105240004069C0F3801030B120680069616A08705D
:10525000606A401C60622068006820F001002168DC
:1052600008602046FCF736FC0EE020684069C0F379
:10527000801030B120680069616A0870606A401C63
:1052800060622046FCF7A4FD256C05F0010058B9CA
:1052900005F00200022807D005F00400042803D01E
:1052A00005F00800082805D12068406820F4E06077
:1052B0002168486094F83D60206C00F004000428E8
:1052C0000ED1282E0CD10848E06200202063202057
:1052D00084F83D00002084F83E002046FCF776FE6E
:1052E000BDE8F081B14E00080000FFFF01460868EC
:1052F0004069C0F38020B0B16FF480600A685061EB
:1053000000200863202081F83D00002081F83E0045
:10531000086C40F00400086400BF002081F83C00E5
:1053200000BF012070470020FCE770B50446E56A25
:10533000608D042810D12068406820F480602168C6
:10534000486020680069616A0870606A401C606299
:10535000608D401E60857FE0608D03281AD1206833
:10536000406820F4806021684860042D07D0022D39
:1053700005D02068006820F48060216808602068FB
:105380000069616A0870606A401C6062608D401E3E
:10539000608561E0608D022854D1012D01D0102D6F
:1053A00006D12068006820F480602168086010E061
:1053B000042D01D0022D06D12068006840F48060E1
:1053C0002168086005E02068006840F400702168EA
:1053D000086020680069616A0870606A401C606249
:1053E000608D401E608520680069616A0870606A8F
:1053F000401C6062608D401E60852068406820F41B
:10540000407021684860202084F83D0094F83E00F8
:10541000402807D1002084F83E0020632046FCF796
:10542000D9FD19E0002084F83E00082D01D0202D80
:1054300002D10020206301E0122020632046FCF707
:10544000C6FD09E020680069616A0870606A401C56
:105450006062608D401E608570BD70B5044694F832
:105460003D0022287AD1E66A658D032D13D9206884
:105470000069616A0870606A401C6062608D401E4D
:105480006085608D032868D12068406820F48060C2
:105490002168486061E0E06A022858D0012D01D0FF
:1054A000002D54D1204600F043FFA0BB20680068C7
:1054B00020F48060216808602068406820F4E06083
:1054C0002168486020680069616A0870606A401C51
:1054D0006062608D401E6085202084F83D0094F855
:1054E0003E00402807D1002084F83E00206320467B
:1054F000FCF770FD31E0002084F83E00082E01D05A
:10550000202E02D10020206301E0122020632046DB
:10551000FCF75DFD21E0FFE72068406820F4E060D3
:105520002168486020680069616A0870606A401CF0
:105530006062608D401E6085202084F83D00002060
:1055400084F83E002046FCF743FC06E006E02068B5
:10555000406820F480602168486000BF70BD70B56D
:105560000446E56A94F83D00212847D1608D50B18A
:10557000606A007821680861606A401C6062608D22
:10558000401E60853AE0082D16D0202D14D015F568
:10559000803F11D02068406820F4E06021684860B6
:1055A00011202063002084F83E00202084F83D0074
:1055B0002046FCF70DFD21E02068406820F4E06003
:1055C000216848602068006840F400702168086025
:1055D00000202063202084F83D0094F83E004028FD
:1055E00006D1002084F83E002046FCF715FD05E0BA
:1055F000002084F83E002046FCF7EAFC70BD2DE94F
:10560000F041044694F83D5094F83E70E66A208DCF
:10561000B0BB212D3CD1082E16D0202E14D016F56B
:10562000803F11D02068406820F4E0602168486025
:1056300011202063002084F83E00202084F83D00E3
:105640002046FCF7C5FC44E02068406820F4E06098
:10565000216848602068006840F400702168086094
:1056600000202063202084F83D0094F83E0040286C
:1056700007D1002084F83E002046FCF7CDFC28E04E
:1056800006E0002084F83E002046FCF7A1FC20E064
:10569000212D03D0402F1CD1222D1AD1608D30B97D
:1056A0002068406820F480602168486011E094F828
:1056B0003E00402803D1204600F0B1F909E0606ABD
:1056C000007821680861606A401C6062608D401E3D
:1056D0006085BDE8F081416CC9B202681161416B1F
:1056E00011B1416B896A21B9816B41B1816B896AC2
:1056F00029B10168496841F400610268516070474E
:1057000038B590F83E20C16A036B90F83D40222CDA
:1057100073D1046D64B9402A0AD100BF00240094FB
:105720000468646900940468A469009400BF26E1D9
:10573000046DC4B90469B4F5404F14D100BF00240E
:1057400000940468646900940468A469009400BF2C
:1057500000BF0468246844F4807405682C60046DFC
:10576000641C04650BE1448D8CB900BF00240094D7
:105770000468646900940468A469009400BF00BFD1
:105780000468246844F4007405682C60E9E0448DE2
:10579000012C72D111F5803F30D10468246824F4C3
:1057A000806405682C600468646804F40064B4F5DF
:1057B000006F10D10468246824F4806405682C60AC
:1057C00000BF002400940468646900940468A4691C
:1057D000009400BFC5E000BF002400940468646921
:1057E00000940468A469009400BF00BF04682468A2
:1057F00044F4007405682C60B3E0B5E0082923D0B8
:10580000202921D0122B01D101291DD104290AD030
:10581000022908D0102906D00468246824F4806482
:1058200005682C6005E00468246844F48064056819
:105830002C6000BF0024009404686469009404682C
:10584000A469009400BF8CE00468246824F4806498
:1058500005682C6000BF002400940468646900940B
:105860000468A469009400BF00BF0468246844F47D
:10587000007405682C6074E0FFE7448D022C47D16A
:1058800004291BD0022919D0102917D004682468D4
:1058900044F4006405682C6000BF00240094046890
:1058A000646900940468A469009400BF00BF0468A0
:1058B000246824F4806405682C6010E0046824687F
:1058C00044F4806405682C6000BF002400940468E0
:1058D000646900940468A469009400BF00BF046870
:1058E000646804F40064B4F5006F3AD111F5803FA8
:1058F00007D0012905D0082903D0102901D020297B
:105900002FD10468646844F4805405686C6028E012
:105910000468246844F4806405682C600468646842
:1059200004F40064B4F5006F10D111F5803F07D086
:10593000012905D0082903D0102901D0202905D13B
:105940000468646844F4805405686C6000BF0024F7
:1059500000940468646900940468A469009400BF1A
:1059600000BF002404650AE000BF0024009404681E
:10597000646900940468A469009400BF00BF38BD46
:1059800090F83E1040290ED1016D29B9416C01F00B
:10599000FE010268116141E0416CC9B241F00101B0
:1059A000026811613AE00169B1F5804F20D190F8A9
:1059B0003D10212905D1416C01F0FE010268116101
:1059C00005E0416CC9B241F0010102681161416B0F
:1059D00011B1416B896A21B9816BF9B1816B896A17
:1059E000E1B10168496841F400610268516015E065
:1059F000016D41B9416C01F44071F02242EAE111BC
:105A0000026811610AE0016D012907D1416C01F4BE
:105A10004071F12242EAE11102681161704770B5EC
:105A2000044694F83D50206D98B9E06C012807D1E8
:105A3000A06CC0B221680861206D801C206550E018
:105A4000A06CC0F3072021680861206D401C206510
:105A500047E0206D012807D1A06CC0B22168086121
:105A6000206D401C20653CE0206D022836D1222D9F
:105A700009D12068006840F4807021680860206DBA
:105A8000401C20652DE0608D60B1212D0AD1606A37
:105A9000007821680861606A401C6062608D401E69
:105AA00060851EE0608DE0B9212D1AD12068406824
:105AB00020F4E060216848602068006840F40070CD
:105AC0002168086000202063202084F83D00002029
:105AD00084F83E002046FCF79FFA02E02046FFF7DC
